{
  "contractName": "Assert",
  "abi": [
    {
      "anonymous": false,
      "inputs": [
        {
          "indexed": true,
          "name": "result",
          "type": "bool"
        },
        {
          "indexed": false,
          "name": "message",
          "type": "string"
        }
      ],
      "name": "TestEvent",
      "type": "event"
    },
    {
      "constant": false,
      "inputs": [
        {
          "name": "message",
          "type": "string"
        }
      ],
      "name": "fail",
      "outputs": [
        {
          "name": "result",
          "type": "bool"
        }
      ],
      "payable": false,
      "stateMutability": "nonpayable",
      "type": "function"
    },
    {
      "constant": false,
      "inputs": [
        {
          "name": "str",
          "type": "string"
        },
        {
          "name": "message",
          "type": "string"
        }
      ],
      "name": "isEmpty",
      "outputs": [
        {
          "name": "result",
          "type": "bool"
        }
      ],
      "payable": false,
      "stateMutability": "nonpayable",
      "type": "function"
    },
    {
      "constant": false,
      "inputs": [
        {
          "name": "str",
          "type": "string"
        },
        {
          "name": "message",
          "type": "string"
        }
      ],
      "name": "isNotEmpty",
      "outputs": [
        {
          "name": "result",
          "type": "bool"
        }
      ],
      "payable": false,
      "stateMutability": "nonpayable",
      "type": "function"
    },
    {
      "constant": false,
      "inputs": [
        {
          "name": "b",
          "type": "bool"
        },
        {
          "name": "message",
          "type": "string"
        }
      ],
      "name": "isTrue",
      "outputs": [
        {
          "name": "result",
          "type": "bool"
        }
      ],
      "payable": false,
      "stateMutability": "nonpayable",
      "type": "function"
    },
    {
      "constant": false,
      "inputs": [
        {
          "name": "b",
          "type": "bool"
        },
        {
          "name": "message",
          "type": "string"
        }
      ],
      "name": "isFalse",
      "outputs": [
        {
          "name": "result",
          "type": "bool"
        }
      ],
      "payable": false,
      "stateMutability": "nonpayable",
      "type": "function"
    },
    {
      "constant": false,
      "inputs": [
        {
          "name": "a",
          "type": "uint256"
        },
        {
          "name": "b",
          "type": "uint256"
        },
        {
          "name": "message",
          "type": "string"
        }
      ],
      "name": "isAbove",
      "outputs": [
        {
          "name": "result",
          "type": "bool"
        }
      ],
      "payable": false,
      "stateMutability": "nonpayable",
      "type": "function"
    },
    {
      "constant": false,
      "inputs": [
        {
          "name": "a",
          "type": "int256"
        },
        {
          "name": "b",
          "type": "int256"
        },
        {
          "name": "message",
          "type": "string"
        }
      ],
      "name": "isAbove",
      "outputs": [
        {
          "name": "result",
          "type": "bool"
        }
      ],
      "payable": false,
      "stateMutability": "nonpayable",
      "type": "function"
    },
    {
      "constant": false,
      "inputs": [
        {
          "name": "a",
          "type": "int256"
        },
        {
          "name": "b",
          "type": "int256"
        },
        {
          "name": "message",
          "type": "string"
        }
      ],
      "name": "isAtLeast",
      "outputs": [
        {
          "name": "result",
          "type": "bool"
        }
      ],
      "payable": false,
      "stateMutability": "nonpayable",
      "type": "function"
    },
    {
      "constant": false,
      "inputs": [
        {
          "name": "a",
          "type": "uint256"
        },
        {
          "name": "b",
          "type": "uint256"
        },
        {
          "name": "message",
          "type": "string"
        }
      ],
      "name": "isAtLeast",
      "outputs": [
        {
          "name": "result",
          "type": "bool"
        }
      ],
      "payable": false,
      "stateMutability": "nonpayable",
      "type": "function"
    },
    {
      "constant": false,
      "inputs": [
        {
          "name": "a",
          "type": "uint256"
        },
        {
          "name": "b",
          "type": "uint256"
        },
        {
          "name": "message",
          "type": "string"
        }
      ],
      "name": "isBelow",
      "outputs": [
        {
          "name": "result",
          "type": "bool"
        }
      ],
      "payable": false,
      "stateMutability": "nonpayable",
      "type": "function"
    },
    {
      "constant": false,
      "inputs": [
        {
          "name": "a",
          "type": "int256"
        },
        {
          "name": "b",
          "type": "int256"
        },
        {
          "name": "message",
          "type": "string"
        }
      ],
      "name": "isBelow",
      "outputs": [
        {
          "name": "result",
          "type": "bool"
        }
      ],
      "payable": false,
      "stateMutability": "nonpayable",
      "type": "function"
    },
    {
      "constant": false,
      "inputs": [
        {
          "name": "a",
          "type": "uint256"
        },
        {
          "name": "b",
          "type": "uint256"
        },
        {
          "name": "message",
          "type": "string"
        }
      ],
      "name": "isAtMost",
      "outputs": [
        {
          "name": "result",
          "type": "bool"
        }
      ],
      "payable": false,
      "stateMutability": "nonpayable",
      "type": "function"
    },
    {
      "constant": false,
      "inputs": [
        {
          "name": "a",
          "type": "int256"
        },
        {
          "name": "b",
          "type": "int256"
        },
        {
          "name": "message",
          "type": "string"
        }
      ],
      "name": "isAtMost",
      "outputs": [
        {
          "name": "result",
          "type": "bool"
        }
      ],
      "payable": false,
      "stateMutability": "nonpayable",
      "type": "function"
    },
    {
      "constant": false,
      "inputs": [
        {
          "name": "number",
          "type": "int256"
        },
        {
          "name": "message",
          "type": "string"
        }
      ],
      "name": "isZero",
      "outputs": [
        {
          "name": "result",
          "type": "bool"
        }
      ],
      "payable": false,
      "stateMutability": "nonpayable",
      "type": "function"
    },
    {
      "constant": false,
      "inputs": [
        {
          "name": "bts",
          "type": "bytes32"
        },
        {
          "name": "message",
          "type": "string"
        }
      ],
      "name": "isZero",
      "outputs": [
        {
          "name": "result",
          "type": "bool"
        }
      ],
      "payable": false,
      "stateMutability": "nonpayable",
      "type": "function"
    },
    {
      "constant": false,
      "inputs": [
        {
          "name": "number",
          "type": "uint256"
        },
        {
          "name": "message",
          "type": "string"
        }
      ],
      "name": "isZero",
      "outputs": [
        {
          "name": "result",
          "type": "bool"
        }
      ],
      "payable": false,
      "stateMutability": "nonpayable",
      "type": "function"
    },
    {
      "constant": false,
      "inputs": [
        {
          "name": "addr",
          "type": "address"
        },
        {
          "name": "message",
          "type": "string"
        }
      ],
      "name": "isZero",
      "outputs": [
        {
          "name": "result",
          "type": "bool"
        }
      ],
      "payable": false,
      "stateMutability": "nonpayable",
      "type": "function"
    },
    {
      "constant": false,
      "inputs": [
        {
          "name": "bts",
          "type": "bytes32"
        },
        {
          "name": "message",
          "type": "string"
        }
      ],
      "name": "isNotZero",
      "outputs": [
        {
          "name": "result",
          "type": "bool"
        }
      ],
      "payable": false,
      "stateMutability": "nonpayable",
      "type": "function"
    },
    {
      "constant": false,
      "inputs": [
        {
          "name": "number",
          "type": "int256"
        },
        {
          "name": "message",
          "type": "string"
        }
      ],
      "name": "isNotZero",
      "outputs": [
        {
          "name": "result",
          "type": "bool"
        }
      ],
      "payable": false,
      "stateMutability": "nonpayable",
      "type": "function"
    },
    {
      "constant": false,
      "inputs": [
        {
          "name": "number",
          "type": "uint256"
        },
        {
          "name": "message",
          "type": "string"
        }
      ],
      "name": "isNotZero",
      "outputs": [
        {
          "name": "result",
          "type": "bool"
        }
      ],
      "payable": false,
      "stateMutability": "nonpayable",
      "type": "function"
    },
    {
      "constant": false,
      "inputs": [
        {
          "name": "addr",
          "type": "address"
        },
        {
          "name": "message",
          "type": "string"
        }
      ],
      "name": "isNotZero",
      "outputs": [
        {
          "name": "result",
          "type": "bool"
        }
      ],
      "payable": false,
      "stateMutability": "nonpayable",
      "type": "function"
    },
    {
      "constant": false,
      "inputs": [
        {
          "name": "a",
          "type": "bool"
        },
        {
          "name": "b",
          "type": "bool"
        },
        {
          "name": "message",
          "type": "string"
        }
      ],
      "name": "equal",
      "outputs": [
        {
          "name": "result",
          "type": "bool"
        }
      ],
      "payable": false,
      "stateMutability": "nonpayable",
      "type": "function"
    },
    {
      "constant": false,
      "inputs": [
        {
          "name": "a",
          "type": "address"
        },
        {
          "name": "b",
          "type": "address"
        },
        {
          "name": "message",
          "type": "string"
        }
      ],
      "name": "equal",
      "outputs": [
        {
          "name": "result",
          "type": "bool"
        }
      ],
      "payable": false,
      "stateMutability": "nonpayable",
      "type": "function"
    },
    {
      "constant": false,
      "inputs": [
        {
          "name": "a",
          "type": "int256"
        },
        {
          "name": "b",
          "type": "int256"
        },
        {
          "name": "message",
          "type": "string"
        }
      ],
      "name": "equal",
      "outputs": [
        {
          "name": "result",
          "type": "bool"
        }
      ],
      "payable": false,
      "stateMutability": "nonpayable",
      "type": "function"
    },
    {
      "constant": false,
      "inputs": [
        {
          "name": "a",
          "type": "bytes32"
        },
        {
          "name": "b",
          "type": "bytes32"
        },
        {
          "name": "message",
          "type": "string"
        }
      ],
      "name": "equal",
      "outputs": [
        {
          "name": "result",
          "type": "bool"
        }
      ],
      "payable": false,
      "stateMutability": "nonpayable",
      "type": "function"
    },
    {
      "constant": false,
      "inputs": [
        {
          "name": "arrA",
          "type": "address[]"
        },
        {
          "name": "arrB",
          "type": "address[]"
        },
        {
          "name": "message",
          "type": "string"
        }
      ],
      "name": "equal",
      "outputs": [
        {
          "name": "result",
          "type": "bool"
        }
      ],
      "payable": false,
      "stateMutability": "nonpayable",
      "type": "function"
    },
    {
      "constant": false,
      "inputs": [
        {
          "name": "arrA",
          "type": "int256[]"
        },
        {
          "name": "arrB",
          "type": "int256[]"
        },
        {
          "name": "message",
          "type": "string"
        }
      ],
      "name": "equal",
      "outputs": [
        {
          "name": "result",
          "type": "bool"
        }
      ],
      "payable": false,
      "stateMutability": "nonpayable",
      "type": "function"
    },
    {
      "constant": false,
      "inputs": [
        {
          "name": "a",
          "type": "uint256"
        },
        {
          "name": "b",
          "type": "uint256"
        },
        {
          "name": "message",
          "type": "string"
        }
      ],
      "name": "equal",
      "outputs": [
        {
          "name": "result",
          "type": "bool"
        }
      ],
      "payable": false,
      "stateMutability": "nonpayable",
      "type": "function"
    },
    {
      "constant": false,
      "inputs": [
        {
          "name": "a",
          "type": "string"
        },
        {
          "name": "b",
          "type": "string"
        },
        {
          "name": "message",
          "type": "string"
        }
      ],
      "name": "equal",
      "outputs": [
        {
          "name": "result",
          "type": "bool"
        }
      ],
      "payable": false,
      "stateMutability": "nonpayable",
      "type": "function"
    },
    {
      "constant": false,
      "inputs": [
        {
          "name": "arrA",
          "type": "bytes32[]"
        },
        {
          "name": "arrB",
          "type": "bytes32[]"
        },
        {
          "name": "message",
          "type": "string"
        }
      ],
      "name": "equal",
      "outputs": [
        {
          "name": "result",
          "type": "bool"
        }
      ],
      "payable": false,
      "stateMutability": "nonpayable",
      "type": "function"
    },
    {
      "constant": false,
      "inputs": [
        {
          "name": "arrA",
          "type": "uint256[]"
        },
        {
          "name": "arrB",
          "type": "uint256[]"
        },
        {
          "name": "message",
          "type": "string"
        }
      ],
      "name": "equal",
      "outputs": [
        {
          "name": "result",
          "type": "bool"
        }
      ],
      "payable": false,
      "stateMutability": "nonpayable",
      "type": "function"
    },
    {
      "constant": false,
      "inputs": [
        {
          "name": "a",
          "type": "string"
        },
        {
          "name": "b",
          "type": "string"
        },
        {
          "name": "message",
          "type": "string"
        }
      ],
      "name": "notEqual",
      "outputs": [
        {
          "name": "result",
          "type": "bool"
        }
      ],
      "payable": false,
      "stateMutability": "nonpayable",
      "type": "function"
    },
    {
      "constant": false,
      "inputs": [
        {
          "name": "a",
          "type": "int256"
        },
        {
          "name": "b",
          "type": "int256"
        },
        {
          "name": "message",
          "type": "string"
        }
      ],
      "name": "notEqual",
      "outputs": [
        {
          "name": "result",
          "type": "bool"
        }
      ],
      "payable": false,
      "stateMutability": "nonpayable",
      "type": "function"
    },
    {
      "constant": false,
      "inputs": [
        {
          "name": "a",
          "type": "bytes32"
        },
        {
          "name": "b",
          "type": "bytes32"
        },
        {
          "name": "message",
          "type": "string"
        }
      ],
      "name": "notEqual",
      "outputs": [
        {
          "name": "result",
          "type": "bool"
        }
      ],
      "payable": false,
      "stateMutability": "nonpayable",
      "type": "function"
    },
    {
      "constant": false,
      "inputs": [
        {
          "name": "a",
          "type": "uint256"
        },
        {
          "name": "b",
          "type": "uint256"
        },
        {
          "name": "message",
          "type": "string"
        }
      ],
      "name": "notEqual",
      "outputs": [
        {
          "name": "result",
          "type": "bool"
        }
      ],
      "payable": false,
      "stateMutability": "nonpayable",
      "type": "function"
    },
    {
      "constant": false,
      "inputs": [
        {
          "name": "arrA",
          "type": "bytes32[]"
        },
        {
          "name": "arrB",
          "type": "bytes32[]"
        },
        {
          "name": "message",
          "type": "string"
        }
      ],
      "name": "notEqual",
      "outputs": [
        {
          "name": "result",
          "type": "bool"
        }
      ],
      "payable": false,
      "stateMutability": "nonpayable",
      "type": "function"
    },
    {
      "constant": false,
      "inputs": [
        {
          "name": "arrA",
          "type": "uint256[]"
        },
        {
          "name": "arrB",
          "type": "uint256[]"
        },
        {
          "name": "message",
          "type": "string"
        }
      ],
      "name": "notEqual",
      "outputs": [
        {
          "name": "result",
          "type": "bool"
        }
      ],
      "payable": false,
      "stateMutability": "nonpayable",
      "type": "function"
    },
    {
      "constant": false,
      "inputs": [
        {
          "name": "a",
          "type": "address"
        },
        {
          "name": "b",
          "type": "address"
        },
        {
          "name": "message",
          "type": "string"
        }
      ],
      "name": "notEqual",
      "outputs": [
        {
          "name": "result",
          "type": "bool"
        }
      ],
      "payable": false,
      "stateMutability": "nonpayable",
      "type": "function"
    },
    {
      "constant": false,
      "inputs": [
        {
          "name": "arrA",
          "type": "address[]"
        },
        {
          "name": "arrB",
          "type": "address[]"
        },
        {
          "name": "message",
          "type": "string"
        }
      ],
      "name": "notEqual",
      "outputs": [
        {
          "name": "result",
          "type": "bool"
        }
      ],
      "payable": false,
      "stateMutability": "nonpayable",
      "type": "function"
    },
    {
      "constant": false,
      "inputs": [
        {
          "name": "a",
          "type": "bool"
        },
        {
          "name": "b",
          "type": "bool"
        },
        {
          "name": "message",
          "type": "string"
        }
      ],
      "name": "notEqual",
      "outputs": [
        {
          "name": "result",
          "type": "bool"
        }
      ],
      "payable": false,
      "stateMutability": "nonpayable",
      "type": "function"
    },
    {
      "constant": false,
      "inputs": [
        {
          "name": "arrA",
          "type": "int256[]"
        },
        {
          "name": "arrB",
          "type": "int256[]"
        },
        {
          "name": "message",
          "type": "string"
        }
      ],
      "name": "notEqual",
      "outputs": [
        {
          "name": "result",
          "type": "bool"
        }
      ],
      "payable": false,
      "stateMutability": "nonpayable",
      "type": "function"
    },
    {
      "constant": false,
      "inputs": [
        {
          "name": "arr",
          "type": "int256[]"
        },
        {
          "name": "length",
          "type": "uint256"
        },
        {
          "name": "message",
          "type": "string"
        }
      ],
      "name": "lengthEqual",
      "outputs": [
        {
          "name": "result",
          "type": "bool"
        }
      ],
      "payable": false,
      "stateMutability": "nonpayable",
      "type": "function"
    },
    {
      "constant": false,
      "inputs": [
        {
          "name": "arr",
          "type": "uint256[]"
        },
        {
          "name": "length",
          "type": "uint256"
        },
        {
          "name": "message",
          "type": "string"
        }
      ],
      "name": "lengthEqual",
      "outputs": [
        {
          "name": "result",
          "type": "bool"
        }
      ],
      "payable": false,
      "stateMutability": "nonpayable",
      "type": "function"
    },
    {
      "constant": false,
      "inputs": [
        {
          "name": "arr",
          "type": "bytes32[]"
        },
        {
          "name": "length",
          "type": "uint256"
        },
        {
          "name": "message",
          "type": "string"
        }
      ],
      "name": "lengthEqual",
      "outputs": [
        {
          "name": "result",
          "type": "bool"
        }
      ],
      "payable": false,
      "stateMutability": "nonpayable",
      "type": "function"
    },
    {
      "constant": false,
      "inputs": [
        {
          "name": "arr",
          "type": "address[]"
        },
        {
          "name": "length",
          "type": "uint256"
        },
        {
          "name": "message",
          "type": "string"
        }
      ],
      "name": "lengthEqual",
      "outputs": [
        {
          "name": "result",
          "type": "bool"
        }
      ],
      "payable": false,
      "stateMutability": "nonpayable",
      "type": "function"
    },
    {
      "constant": false,
      "inputs": [
        {
          "name": "arr",
          "type": "bytes32[]"
        },
        {
          "name": "length",
          "type": "uint256"
        },
        {
          "name": "message",
          "type": "string"
        }
      ],
      "name": "lengthNotEqual",
      "outputs": [
        {
          "name": "result",
          "type": "bool"
        }
      ],
      "payable": false,
      "stateMutability": "nonpayable",
      "type": "function"
    },
    {
      "constant": false,
      "inputs": [
        {
          "name": "arr",
          "type": "int256[]"
        },
        {
          "name": "length",
          "type": "uint256"
        },
        {
          "name": "message",
          "type": "string"
        }
      ],
      "name": "lengthNotEqual",
      "outputs": [
        {
          "name": "result",
          "type": "bool"
        }
      ],
      "payable": false,
      "stateMutability": "nonpayable",
      "type": "function"
    },
    {
      "constant": false,
      "inputs": [
        {
          "name": "arr",
          "type": "address[]"
        },
        {
          "name": "length",
          "type": "uint256"
        },
        {
          "name": "message",
          "type": "string"
        }
      ],
      "name": "lengthNotEqual",
      "outputs": [
        {
          "name": "result",
          "type": "bool"
        }
      ],
      "payable": false,
      "stateMutability": "nonpayable",
      "type": "function"
    },
    {
      "constant": false,
      "inputs": [
        {
          "name": "arr",
          "type": "uint256[]"
        },
        {
          "name": "length",
          "type": "uint256"
        },
        {
          "name": "message",
          "type": "string"
        }
      ],
      "name": "lengthNotEqual",
      "outputs": [
        {
          "name": "result",
          "type": "bool"
        }
      ],
      "payable": false,
      "stateMutability": "nonpayable",
      "type": "function"
    },
    {
      "constant": false,
      "inputs": [
        {
          "name": "a",
          "type": "address"
        },
        {
          "name": "b",
          "type": "uint256"
        },
        {
          "name": "message",
          "type": "string"
        }
      ],
      "name": "balanceEqual",
      "outputs": [
        {
          "name": "result",
          "type": "bool"
        }
      ],
      "payable": false,
      "stateMutability": "nonpayable",
      "type": "function"
    },
    {
      "constant": false,
      "inputs": [
        {
          "name": "a",
          "type": "address"
        },
        {
          "name": "b",
          "type": "uint256"
        },
        {
          "name": "message",
          "type": "string"
        }
      ],
      "name": "balanceNotEqual",
      "outputs": [
        {
          "name": "result",
          "type": "bool"
        }
      ],
      "payable": false,
      "stateMutability": "nonpayable",
      "type": "function"
    },
    {
      "constant": false,
      "inputs": [
        {
          "name": "a",
          "type": "address"
        },
        {
          "name": "message",
          "type": "string"
        }
      ],
      "name": "balanceIsZero",
      "outputs": [
        {
          "name": "result",
          "type": "bool"
        }
      ],
      "payable": false,
      "stateMutability": "nonpayable",
      "type": "function"
    },
    {
      "constant": false,
      "inputs": [
        {
          "name": "a",
          "type": "address"
        },
        {
          "name": "message",
          "type": "string"
        }
      ],
      "name": "balanceIsNotZero",
      "outputs": [
        {
          "name": "result",
          "type": "bool"
        }
      ],
      "payable": false,
      "stateMutability": "nonpayable",
      "type": "function"
    }
  ],
  "bytecode": "0x615b2e62000033600b82828239805160001a60731460008114620000235762000025565bfe5b5030600052607381538281f3007300000000000000000000000000000000000000003014608060405260043610610294576000357c0100000000000000000000000000000000000000000000000000000000900463ffffffff16806306ea29c214610299578063073933ed146103a05780630a17d4221461042b578063100fd02f146104b65780631042604f1461054b5780631cdadfae146105d85780631d1997a0146106835780631d45e9e1146107515780632441595314610858578063247cf1aa1461092657806325fa0131146109f45780632d1a647714610a955780633108f0d714610b6357806333967c7414610bee57806344781a0014610c7d578063451febcc14610d1657806349f9793914610e1d5780634e3e403514610f2a578063556fe56214610fbf578063561015e21461105c57806356861450146110f157806366ae935f14611186578063698154351461123157806372a7d8c9146112c6578063767392b31461139457806378122f3a1461142d57806379f7a873146114ae5780637eb5df391461154357806385203aa21461164a5780638aeb8f98146117185780638e0f65eb146117df57806391872a911461187457806391ec845e1461193b5780639a40d8f5146119d0578063a063dae814611ad7578063a3c66c1d14611bde578063abcd796014611ce5578063acd5fb2314611d7a578063b06939a214611e05578063b13bdfb614611f0c578063b5ba707414611fa1578063b8f2853114612036578063bf125c49146120f7578063bfba5dd614612198578063c37db25314612259578063df0f3e1c146122e8578063e8c2cb1614612375578063ea79dd7914612482578063ee712f591461251f578063f327b7fc146125c0578063f5bae6b614612661578063fb1fdc2e146126f6578063fea5d9e0146127c4575b600080fd5b8180156102a557600080fd5b506103866004803603810190808035906020019082018035906020019080806020026020016040519081016040528093929190818152602001838360200280828437820191505050505050919291929080359060200190820180359060200190808060200260200160405190810160405280939291908181526020018383602002808284378201915050505050509192919290803590602001908201803590602001908080601f0160208091040260200160405190810160405280939291908181526020018383808284378201915050505050509192919290505050612892565b604051808215151515815260200191505060405180910390f35b8180156103ac57600080fd5b5061041160048036038101908080359060200190929190803590602001908201803590602001908080601f0160208091040260200160405190810160405280939291908181526020018383808284378201915050505050509192919290505050612914565b604051808215151515815260200191505060405180910390f35b81801561043757600080fd5b5061049c60048036038101908080359060200190929190803590602001908201803590602001908080601f0160208091040260200160405190810160405280939291908181526020018383808284378201915050505050509192919290505050612989565b604051808215151515815260200191505060405180910390f35b8180156104c257600080fd5b506105316004803603810190808035906020019092919080359060200190929190803590602001908201803590602001908080601f01602080910402602001604051908101604052809392919081815260200183838082843782019150505050505091929192905050506129fd565b604051808215151515815260200191505060405180910390f35b81801561055757600080fd5b506105be600480360381019080803515159060200190929190803590602001908201803590602001908080601f0160208091040260200160405190810160405280939291908181526020018383808284378201915050505050509192919290505050612ab1565b604051808215151515815260200191505060405180910390f35b8180156105e457600080fd5b50610669600480360381019080803573ffffffffffffffffffffffffffffffffffffffff16906020019092919080359060200190929190803590602001908201803590602001908080601f0160208091040260200160405190810160405280939291908181526020018383808284378201915050505050509192919290505050612ac6565b604051808215151515815260200191505060405180910390f35b81801561068f57600080fd5b506107376004803603810190808035906020019082018035906020019080806020026020016040519081016040528093929190818152602001838360200280828437820191505050505050919291929080359060200190929190803590602001908201803590602001908080601f0160208091040260200160405190810160405280939291908181526020018383808284378201915050505050509192919290505050612af6565b604051808215151515815260200191505060405180910390f35b81801561075d57600080fd5b5061083e6004803603810190808035906020019082018035906020019080806020026020016040519081016040528093929190818152602001838360200280828437820191505050505050919291929080359060200190820180359060200190808060200260200160405190810160405280939291908181526020018383602002808284378201915050505050509192919290803590602001908201803590602001908080601f0160208091040260200160405190810160405280939291908181526020018383808284378201915050505050509192919290505050612bbf565b604051808215151515815260200191505060405180910390f35b81801561086457600080fd5b5061090c6004803603810190808035906020019082018035906020019080806020026020016040519081016040528093929190818152602001838360200280828437820191505050505050919291929080359060200190929190803590602001908201803590602001908080601f0160208091040260200160405190810160405280939291908181526020018383808284378201915050505050509192919290505050612c41565b604051808215151515815260200191505060405180910390f35b81801561093257600080fd5b506109da6004803603810190808035906020019082018035906020019080806020026020016040519081016040528093929190818152602001838360200280828437820191505050505050919291929080359060200190929190803590602001908201803590602001908080601f0160208091040260200160405190810160405280939291908181526020018383808284378201915050505050509192919290505050612d08565b604051808215151515815260200191505060405180910390f35b818015610a0057600080fd5b50610a7b600480360381019080803573ffffffffffffffffffffffffffffffffffffffff169060200190929190803590602001908201803590602001908080601f0160208091040260200160405190810160405280939291908181526020018383808284378201915050505050509192919290505050612dd1565b604051808215151515815260200191505060405180910390f35b818015610aa157600080fd5b50610b496004803603810190808035906020019082018035906020019080806020026020016040519081016040528093929190818152602001838360200280828437820191505050505050919291929080359060200190929190803590602001908201803590602001908080601f0160208091040260200160405190810160405280939291908181526020018383808284378201915050505050509192919290505050612e14565b604051808215151515815260200191505060405180910390f35b818015610b6f57600080fd5b50610bd460048036038101908080359060200190929190803590602001908201803590602001908080601f0160208091040260200160405190810160405280939291908181526020018383808284378201915050505050509192919290505050612edb565b604051808215151515815260200191505060405180910390f35b818015610bfa57600080fd5b50610c636004803603810190808035600019169060200190929190803590602001908201803590602001908080601f0160208091040260200160405190810160405280939291908181526020018383808284378201915050505050509192919290505050612f50565b604051808215151515815260200191505060405180910390f35b818015610c8957600080fd5b50610cfc600480360381019080803515159060200190929190803515159060200190929190803590602001908201803590602001908080601f0160208091040260200160405190810160405280939291908181526020018383808284378201915050505050509192919290505050612f72565b604051808215151515815260200191505060405180910390f35b818015610d2257600080fd5b50610e036004803603810190808035906020019082018035906020019080806020026020016040519081016040528093929190818152602001838360200280828437820191505050505050919291929080359060200190820180359060200190808060200260200160405190810160405280939291908181526020018383602002808284378201915050505050509192919290803590602001908201803590602001908080601f016020809104026020016040519081016040528093929190818152602001838380828437820191505050505050919291929050505061302b565b604051808215151515815260200191505060405180910390f35b818015610e2957600080fd5b50610f10600480360381019080803590602001908201803590602001908080601f0160208091040260200160405190810160405280939291908181526020018383808284378201915050505050509192919290803590602001908201803590602001908080601f0160208091040260200160405190810160405280939291908181526020018383808284378201915050505050509192919290803590602001908201803590602001908080601f01602080910402602001604051908101604052809392919081815260200183838082843782019150505050505091929192905050506130b1565b604051808215151515815260200191505060405180910390f35b818015610f3657600080fd5b50610fa56004803603810190808035906020019092919080359060200190929190803590602001908201803590602001908080601f016020809104026020016040519081016040528093929190818152602001838380828437820191505050505050919291929050505061316d565b604051808215151515815260200191505060405180910390f35b818015610fcb57600080fd5b5061104260048036038101908080356000191690602001909291908035600019169060200190929190803590602001908201803590602001908080601f0160208091040260200160405190810160405280939291908181526020018383808284378201915050505050509192919290505050613222565b604051808215151515815260200191505060405180910390f35b81801561106857600080fd5b506110d76004803603810190808035906020019092919080359060200190929190803590602001908201803590602001908080601f0160208091040260200160405190810160405280939291908181526020018383808284378201915050505050509192919290505050613243565b604051808215151515815260200191505060405180910390f35b8180156110fd57600080fd5b5061116c6004803603810190808035906020019092919080359060200190929190803590602001908201803590602001908080601f01602080910402602001604051908101604052809392919081815260200183838082843782019150505050505091929192905050506132f8565b604051808215151515815260200191505060405180910390f35b81801561119257600080fd5b50611217600480360381019080803573ffffffffffffffffffffffffffffffffffffffff16906020019092919080359060200190929190803590602001908201803590602001908080601f01602080910402602001604051908101604052809392919081815260200183838082843782019150505050505091929192905050506133ad565b604051808215151515815260200191505060405180910390f35b81801561123d57600080fd5b506112ac6004803603810190808035906020019092919080359060200190929190803590602001908201803590602001908080601f01602080910402602001604051908101604052809392919081815260200183838082843782019150505050505091929192905050506133dc565b604051808215151515815260200191505060405180910390f35b8180156112d257600080fd5b5061137a6004803603810190808035906020019082018035906020019080806020026020016040519081016040528093929190818152602001838360200280828437820191505050505050919291929080359060200190929190803590602001908201803590602001908080601f0160208091040260200160405190810160405280939291908181526020018383808284378201915050505050509192919290505050613490565b604051808215151515815260200191505060405180910390f35b8180156113a057600080fd5b50611413600480360381019080803515159060200190929190803515159060200190929190803590602001908201803590602001908080601f0160208091040260200160405190810160405280939291908181526020018383808284378201915050505050509192919290505050613557565b604051808215151515815260200191505060405180910390f35b81801561143957600080fd5b50611494600480360381019080803590602001908201803590602001908080601f016020809104026020016040519081016040528093929190818152602001838380828437820191505050505050919291929050505061360f565b604051808215151515815260200191505060405180910390f35b8180156114ba57600080fd5b506115296004803603810190808035906020019092919080359060200190929190803590602001908201803590602001908080601f0160208091040260200160405190810160405280939291908181526020018383808284378201915050505050509192919290505050613625565b604051808215151515815260200191505060405180910390f35b81801561154f57600080fd5b506116306004803603810190808035906020019082018035906020019080806020026020016040519081016040528093929190818152602001838360200280828437820191505050505050919291929080359060200190820180359060200190808060200260200160405190810160405280939291908181526020018383602002808284378201915050505050509192919290803590602001908201803590602001908080601f01602080910402602001604051908101604052809392919081815260200183838082843782019150505050505091929192905050506136da565b604051808215151515815260200191505060405180910390f35b81801561165657600080fd5b506116fe6004803603810190808035906020019082018035906020019080806020026020016040519081016040528093929190818152602001838360200280828437820191505050505050919291929080359060200190929190803590602001908201803590602001908080601f0160208091040260200160405190810160405280939291908181526020018383808284378201915050505050509192919290505050613758565b604051808215151515815260200191505060405180910390f35b81801561172457600080fd5b506117c5600480360381019080803590602001908201803590602001908080601f0160208091040260200160405190810160405280939291908181526020018383808284378201915050505050509192919290803590602001908201803590602001908080601f0160208091040260200160405190810160405280939291908181526020018383808284378201915050505050509192919290505050613821565b604051808215151515815260200191505060405180910390f35b8180156117eb57600080fd5b5061185a6004803603810190808035906020019092919080359060200190929190803590602001908201803590602001908080601f01602080910402602001604051908101604052809392919081815260200183838082843782019150505050505091929192905050506138ad565b604051808215151515815260200191505060405180910390f35b81801561188057600080fd5b50611921600480360381019080803590602001908201803590602001908080601f0160208091040260200160405190810160405280939291908181526020018383808284378201915050505050509192919290803590602001908201803590602001908080601f0160208091040260200160405190810160405280939291908181526020018383808284378201915050505050509192919290505050613961565b604051808215151515815260200191505060405180910390f35b81801561194757600080fd5b506119b66004803603810190808035906020019092919080359060200190929190803590602001908201803590602001908080601f01602080910402602001604051908101604052809392919081815260200183838082843782019150505050505091929192905050506139ec565b604051808215151515815260200191505060405180910390f35b8180156119dc57600080fd5b50611abd6004803603810190808035906020019082018035906020019080806020026020016040519081016040528093929190818152602001838360200280828437820191505050505050919291929080359060200190820180359060200190808060200260200160405190810160405280939291908181526020018383602002808284378201915050505050509192919290803590602001908201803590602001908080601f0160208091040260200160405190810160405280939291908181526020018383808284378201915050505050509192919290505050613aa1565b604051808215151515815260200191505060405180910390f35b818015611ae357600080fd5b50611bc46004803603810190808035906020019082018035906020019080806020026020016040519081016040528093929190818152602001838360200280828437820191505050505050919291929080359060200190820180359060200190808060200260200160405190810160405280939291908181526020018383602002808284378201915050505050509192919290803590602001908201803590602001908080601f0160208091040260200160405190810160405280939291908181526020018383808284378201915050505050509192919290505050613b4b565b604051808215151515815260200191505060405180910390f35b818015611bea57600080fd5b50611ccb6004803603810190808035906020019082018035906020019080806020026020016040519081016040528093929190818152602001838360200280828437820191505050505050919291929080359060200190820180359060200190808060200260200160405190810160405280939291908181526020018383602002808284378201915050505050509192919290803590602001908201803590602001908080601f0160208091040260200160405190810160405280939291908181526020018383808284378201915050505050509192919290505050613bc9565b604051808215151515815260200191505060405180910390f35b818015611cf157600080fd5b50611d606004803603810190808035906020019092919080359060200190929190803590602001908201803590602001908080601f0160208091040260200160405190810160405280939291908181526020018383808284378201915050505050509192919290505050613c53565b604051808215151515815260200191505060405180910390f35b818015611d8657600080fd5b50611deb60048036038101908080359060200190929190803590602001908201803590602001908080601f0160208091040260200160405190810160405280939291908181526020018383808284378201915050505050509192919290505050613d07565b604051808215151515815260200191505060405180910390f35b818015611e1157600080fd5b50611ef26004803603810190808035906020019082018035906020019080806020026020016040519081016040528093929190818152602001838360200280828437820191505050505050919291929080359060200190820180359060200190808060200260200160405190810160405280939291908181526020018383602002808284378201915050505050509192919290803590602001908201803590602001908080601f0160208091040260200160405190810160405280939291908181526020018383808284378201915050505050509192919290505050613d7b565b604051808215151515815260200191505060405180910390f35b818015611f1857600080fd5b50611f876004803603810190808035906020019092919080359060200190929190803590602001908201803590602001908080601f0160208091040260200160405190810160405280939291908181526020018383808284378201915050505050509192919290505050613e29565b604051808215151515815260200191505060405180910390f35b818015611fad57600080fd5b5061201c6004803603810190808035906020019092919080359060200190929190803590602001908201803590602001908080601f0160208091040260200160405190810160405280939291908181526020018383808284378201915050505050509192919290505050613ede565b604051808215151515815260200191505060405180910390f35b81801561204257600080fd5b506120dd600480360381019080803573ffffffffffffffffffffffffffffffffffffffff169060200190929190803573ffffffffffffffffffffffffffffffffffffffff169060200190929190803590602001908201803590602001908080601f0160208091040260200160405190810160405280939291908181526020018383808284378201915050505050509192919290505050613f92565b604051808215151515815260200191505060405180910390f35b81801561210357600080fd5b5061217e600480360381019080803573ffffffffffffffffffffffffffffffffffffffff169060200190929190803590602001908201803590602001908080601f0160208091040260200160405190810160405280939291908181526020018383808284378201915050505050509192919290505050613fd7565b604051808215151515815260200191505060405180910390f35b8180156121a457600080fd5b5061223f600480360381019080803573ffffffffffffffffffffffffffffffffffffffff169060200190929190803573ffffffffffffffffffffffffffffffffffffffff169060200190929190803590602001908201803590602001908080601f0160208091040260200160405190810160405280939291908181526020018383808284378201915050505050509192919290505050614005565b604051808215151515815260200191505060405180910390f35b81801561226557600080fd5b506122ce6004803603810190808035600019169060200190929190803590602001908201803590602001908080601f0160208091040260200160405190810160405280939291908181526020018383808284378201915050505050509192919290505050614049565b604051808215151515815260200191505060405180910390f35b8180156122f457600080fd5b5061235b600480360381019080803515159060200190929190803590602001908201803590602001908080601f016020809104026020016040519081016040528093929190818152602001838380828437820191505050505050919291929050505061406c565b604051808215151515815260200191505060405180910390f35b81801561238157600080fd5b50612468600480360381019080803590602001908201803590602001908080601f0160208091040260200160405190810160405280939291908181526020018383808284378201915050505050509192919290803590602001908201803590602001908080601f0160208091040260200160405190810160405280939291908181526020018383808284378201915050505050509192919290803590602001908201803590602001908080601f0160208091040260200160405190810160405280939291908181526020018383808284378201915050505050509192919290505050614082565b604051808215151515815260200191505060405180910390f35b81801561248e57600080fd5b5061250560048036038101908080356000191690602001909291908035600019169060200190929190803590602001908201803590602001908080601f016020809104026020016040519081016040528093929190818152602001838380828437820191505050505050919291929050505061413d565b604051808215151515815260200191505060405180910390f35b81801561252b57600080fd5b506125a6600480360381019080803573ffffffffffffffffffffffffffffffffffffffff169060200190929190803590602001908201803590602001908080601f016020809104026020016040519081016040528093929190818152602001838380828437820191505050505050919291929050505061415d565b604051808215151515815260200191505060405180910390f35b8180156125cc57600080fd5b50612647600480360381019080803573ffffffffffffffffffffffffffffffffffffffff169060200190929190803590602001908201803590602001908080601f016020809104026020016040519081016040528093929190818152602001838380828437820191505050505050919291929050505061418c565b604051808215151515815260200191505060405180910390f35b81801561266d57600080fd5b506126dc6004803603810190808035906020019092919080359060200190929190803590602001908201803590602001908080601f01602080910402602001604051908101604052809392919081815260200183838082843782019150505050505091929192905050506141d0565b604051808215151515815260200191505060405180910390f35b81801561270257600080fd5b506127aa6004803603810190808035906020019082018035906020019080806020026020016040519081016040528093929190818152602001838360200280828437820191505050505050919291929080359060200190929190803590602001908201803590602001908080601f0160208091040260200160405190810160405280939291908181526020018383808284378201915050505050509192919290505050614284565b604051808215151515815260200191505060405180910390f35b8180156127d057600080fd5b506128786004803603810190808035906020019082018035906020019080806020026020016040519081016040528093929190818152602001838360200280828437820191505050505050919291929080359060200190929190803590602001908201803590602001908080601f016020809104026020016040519081016040528093929190818152602001838380828437820191505050505050919291929050505061434d565b604051808215151515815260200191505060405180910390f35b6000808351855114915081156128fe57600090505b84518110156128fd5783818151811015156128be57fe5b9060200190602002015185828151811015156128d657fe5b906020019060200201511415156128f057600091506128fd565b80806001019150506128a7565b5b8115915061290c8284614414565b509392505050565b600080831415905080156129315761292c8183614414565b612983565b6129828161297d612977866040805190810160405280600681526020017f546573746564000000000000000000000000000000000000000000000000000081525061450b565b8561452e565b614414565b5b92915050565b6000808314905080156129a5576129a08183614414565b6129f7565b6129f6816129f16129eb866040805190810160405280600681526020017f5465737465640000000000000000000000000000000000000000000000000000815250614831565b8561452e565b614414565b5b92915050565b600082841390508015612a1957612a148183614414565b612aaa565b612aa981612aa4612a5f876040805190810160405280600681526020017f546573746564000000000000000000000000000000000000000000000000000081525061450b565b612a9e876040805190810160405280600781526020017f416761696e73740000000000000000000000000000000000000000000000000081525061450b565b86614854565b614414565b5b9392505050565b6000829050612ac08183614414565b92915050565b6000828473ffffffffffffffffffffffffffffffffffffffff163114159050612aef8183614414565b9392505050565b60008084519050845181141515612b2657612b21826020604051908101604052806000815250614414565b612bb7565b612bb682612bb1612b6c846040805190810160405280600681526020017f5465737465640000000000000000000000000000000000000000000000000000815250614831565b612bab886040805190810160405280600781526020017f416761696e737400000000000000000000000000000000000000000000000000815250614831565b87614854565b614414565b5b509392505050565b600080835185511491508115612c2b57600090505b8451811015612c2a578381815181101515612beb57fe5b906020019060200201518582815181101515612c0357fe5b90602001906020020151141515612c1d5760009150612c2a565b8080600101915050612bd4565b5b81159150612c398284614414565b509392505050565b6000808451905083811415612c6f57612c6a826020604051908101604052806000815250614414565b612d00565b612cff82612cfa612cb5846040805190810160405280600681526020017f5465737465640000000000000000000000000000000000000000000000000000815250614831565b612cf4886040805190810160405280600781526020017f416761696e737400000000000000000000000000000000000000000000000000815250614831565b87614854565b614414565b5b509392505050565b60008084519050845181141515612d3857612d33826020604051908101604052806000815250614414565b612dc9565b612dc882612dc3612d7e846040805190810160405280600681526020017f5465737465640000000000000000000000000000000000000000000000000000815250614831565b612dbd886040805190810160405280600781526020017f416761696e737400000000000000000000000000000000000000000000000000815250614831565b87614854565b614414565b5b509392505050565b60008073ffffffffffffffffffffffffffffffffffffffff168373ffffffffffffffffffffffffffffffffffffffff16149050612e0e8183614414565b92915050565b6000808451905083811415612e4257612e3d826020604051908101604052806000815250614414565b612ed3565b612ed282612ecd612e88846040805190810160405280600681526020017f5465737465640000000000000000000000000000000000000000000000000000815250614831565b612ec7886040805190810160405280600781526020017f416761696e737400000000000000000000000000000000000000000000000000815250614831565b87614854565b614414565b5b509392505050565b60008083141590508015612ef857612ef38183614414565b612f4a565b612f4981612f44612f3e866040805190810160405280600681526020017f5465737465640000000000000000000000000000000000000000000000000000815250614831565b8561452e565b614414565b5b92915050565b600080600102600019168360001916149050612f6c8183614414565b92915050565b6000821515841515141590508015612f9357612f8e8183614414565b613024565b6130238161301e612fd9876040805190810160405280600681526020017f5465737465640000000000000000000000000000000000000000000000000000815250614ce7565b613018876040805190810160405280600781526020017f416761696e737400000000000000000000000000000000000000000000000000815250614ce7565b86614854565b614414565b5b9392505050565b60008083518551149150811561309f57600090505b845181101561309e57838181518110151561305757fe5b9060200190602002015160001916858281518110151561307357fe5b9060200190602002015160001916141515613091576000915061309e565b8080600101915050613040565b5b6130a98284614414565b509392505050565b60006130bd8484614d08565b15905080156130d5576130d08183614414565b613166565b6131658161316061311b876040805190810160405280600681526020017f5465737465640000000000000000000000000000000000000000000000000000815250614e58565b61315a876040805190810160405280600781526020017f416761696e737400000000000000000000000000000000000000000000000000815250614e58565b86614854565b614414565b5b9392505050565b6000828414159050801561318a576131858183614414565b61321b565b61321a816132156131d0876040805190810160405280600681526020017f546573746564000000000000000000000000000000000000000000000000000081525061450b565b61320f876040805190810160405280600781526020017f416761696e73740000000000000000000000000000000000000000000000000081525061450b565b86614854565b614414565b5b9392505050565b6000826000191684600019161415905061323c8183614414565b9392505050565b600082841415905080156132605761325b8183614414565b6132f1565b6132f0816132eb6132a6876040805190810160405280600681526020017f5465737465640000000000000000000000000000000000000000000000000000815250614831565b6132e5876040805190810160405280600781526020017f416761696e737400000000000000000000000000000000000000000000000000815250614831565b86614854565b614414565b5b9392505050565b60008284121590508015613315576133108183614414565b6133a6565b6133a5816133a061335b876040805190810160405280600681526020017f546573746564000000000000000000000000000000000000000000000000000081525061450b565b61339a876040805190810160405280600781526020017f416761696e73740000000000000000000000000000000000000000000000000081525061450b565b86614854565b614414565b5b9392505050565b6000828473ffffffffffffffffffffffffffffffffffffffff16311490506133d58183614414565b9392505050565b6000828411905080156133f8576133f38183614414565b613489565b6134888161348361343e876040805190810160405280600681526020017f5465737465640000000000000000000000000000000000000000000000000000815250614831565b61347d876040805190810160405280600781526020017f416761696e737400000000000000000000000000000000000000000000000000815250614831565b86614854565b614414565b5b9392505050565b60008084519050838114156134be576134b9826020604051908101604052806000815250614414565b61354f565b61354e82613549613504846040805190810160405280600681526020017f5465737465640000000000000000000000000000000000000000000000000000815250614831565b613543886040805190810160405280600781526020017f416761696e737400000000000000000000000000000000000000000000000000815250614831565b87614854565b614414565b5b509392505050565b60008215158415151490508015613577576135728183614414565b613608565b613607816136026135bd876040805190810160405280600681526020017f5465737465640000000000000000000000000000000000000000000000000000815250614ce7565b6135fc876040805190810160405280600781526020017f416761696e737400000000000000000000000000000000000000000000000000815250614ce7565b86614854565b614414565b5b9392505050565b600061361c600083614414565b60009050919050565b600082841015905080156136425761363d8183614414565b6136d3565b6136d2816136cd613688876040805190810160405280600681526020017f5465737465640000000000000000000000000000000000000000000000000000815250614831565b6136c7876040805190810160405280600781526020017f416761696e737400000000000000000000000000000000000000000000000000815250614831565b86614854565b614414565b5b9392505050565b60008083518551149150811561374657600090505b845181101561374557838181518110151561370657fe5b90602001906020020151858281518110151561371e57fe5b906020019060200201511415156137385760009150613745565b80806001019150506136ef565b5b6137508284614414565b509392505050565b6000808451905084518114151561378857613783826020604051908101604052806000815250614414565b613819565b613818826138136137ce846040805190810160405280600681526020017f5465737465640000000000000000000000000000000000000000000000000000815250614831565b61380d886040805190810160405280600781526020017f416761696e737400000000000000000000000000000000000000000000000000815250614831565b87614854565b614414565b5b509392505050565b600061383d836020604051908101604052806000815250614d08565b1590508015613855576138508183614414565b6138a7565b6138a6816138a161389b866040805190810160405280600681526020017f5465737465640000000000000000000000000000000000000000000000000000815250614e58565b8561452e565b614414565b5b92915050565b6000828412905080156138c9576138c48183614414565b61395a565b6139598161395461390f876040805190810160405280600681526020017f546573746564000000000000000000000000000000000000000000000000000081525061450b565b61394e876040805190810160405280600781526020017f416761696e73740000000000000000000000000000000000000000000000000081525061450b565b86614854565b614414565b5b9392505050565b600061397d836020604051908101604052806000815250614d08565b905080156139945761398f8183614414565b6139e6565b6139e5816139e06139da866040805190810160405280600681526020017f5465737465640000000000000000000000000000000000000000000000000000815250614e58565b8561452e565b614414565b5b92915050565b60008284131590508015613a0957613a048183614414565b613a9a565b613a9981613a94613a4f876040805190810160405280600681526020017f546573746564000000000000000000000000000000000000000000000000000081525061450b565b613a8e876040805190810160405280600781526020017f416761696e73740000000000000000000000000000000000000000000000000081525061450b565b86614854565b614414565b5b9392505050565b600080835185511491508115613b3957600090505b8451811015613b38578381815181101515613acd57fe5b9060200190602002015173ffffffffffffffffffffffffffffffffffffffff168582815181101515613afb57fe5b9060200190602002015173ffffffffffffffffffffffffffffffffffffffff16141515613b2b5760009150613b38565b8080600101915050613ab6565b5b613b438284614414565b509392505050565b600080835185511491508115613bb757600090505b8451811015613bb6578381815181101515613b7757fe5b906020019060200201518582815181101515613b8f57fe5b90602001906020020151141515613ba95760009150613bb6565b8080600101915050613b60565b5b613bc18284614414565b509392505050565b600080835185511491508115613c3d57600090505b8451811015613c3c578381815181101515613bf557fe5b90602001906020020151600019168582815181101515613c1157fe5b9060200190602002015160001916141515613c2f5760009150613c3c565b8080600101915050613bde565b5b81159150613c4b8284614414565b509392505050565b600082841490508015613c6f57613c6a8183614414565b613d00565b613cff81613cfa613cb5876040805190810160405280600681526020017f5465737465640000000000000000000000000000000000000000000000000000815250614831565b613cf4876040805190810160405280600781526020017f416761696e737400000000000000000000000000000000000000000000000000815250614831565b86614854565b614414565b5b9392505050565b600080831490508015613d2357613d1e8183614414565b613d75565b613d7481613d6f613d69866040805190810160405280600681526020017f546573746564000000000000000000000000000000000000000000000000000081525061450b565b8561452e565b614414565b5b92915050565b600080835185511491508115613e1357600090505b8451811015613e12578381815181101515613da757fe5b9060200190602002015173ffffffffffffffffffffffffffffffffffffffff168582815181101515613dd557fe5b9060200190602002015173ffffffffffffffffffffffffffffffffffffffff16141515613e055760009150613e12565b8080600101915050613d90565b5b81159150613e218284614414565b509392505050565b60008284111590508015613e4657613e418183614414565b613ed7565b613ed681613ed1613e8c876040805190810160405280600681526020017f5465737465640000000000000000000000000000000000000000000000000000815250614831565b613ecb876040805190810160405280600781526020017f416761696e737400000000000000000000000000000000000000000000000000815250614831565b86614854565b614414565b5b9392505050565b600082841090508015613efa57613ef58183614414565b613f8b565b613f8a81613f85613f40876040805190810160405280600681526020017f5465737465640000000000000000000000000000000000000000000000000000815250614831565b613f7f876040805190810160405280600781526020017f416761696e737400000000000000000000000000000000000000000000000000815250614831565b86614854565b614414565b5b9392505050565b60008273ffffffffffffffffffffffffffffffffffffffff168473ffffffffffffffffffffffffffffffffffffffff1614159050613fd08183614414565b9392505050565b6000808373ffffffffffffffffffffffffffffffffffffffff1631149050613fff8183614414565b92915050565b60008273ffffffffffffffffffffffffffffffffffffffff168473ffffffffffffffffffffffffffffffffffffffff161490506140428183614414565b9392505050565b600080600102600019168360001916141590506140668183614414565b92915050565b60008215905061407c8183614414565b92915050565b600061408e8484614d08565b905080156140a5576140a08183614414565b614136565b614135816141306140eb876040805190810160405280600681526020017f5465737465640000000000000000000000000000000000000000000000000000815250614e58565b61412a876040805190810160405280600781526020017f416761696e737400000000000000000000000000000000000000000000000000815250614e58565b86614854565b614414565b5b9392505050565b6000826000191684600019161490506141568183614414565b9392505050565b6000808373ffffffffffffffffffffffffffffffffffffffff1631141590506141868183614414565b92915050565b60008073ffffffffffffffffffffffffffffffffffffffff168373ffffffffffffffffffffffffffffffffffffffff16141590506141ca8183614414565b92915050565b6000828414905080156141ec576141e78183614414565b61427d565b61427c81614277614232876040805190810160405280600681526020017f546573746564000000000000000000000000000000000000000000000000000081525061450b565b614271876040805190810160405280600781526020017f416761696e73740000000000000000000000000000000000000000000000000081525061450b565b86614854565b614414565b5b9392505050565b600080845190508451811415156142b4576142af826020604051908101604052806000815250614414565b614345565b6143448261433f6142fa846040805190810160405280600681526020017f5465737465640000000000000000000000000000000000000000000000000000815250614831565b614339886040805190810160405280600781526020017f416761696e737400000000000000000000000000000000000000000000000000815250614831565b87614854565b614414565b5b509392505050565b600080845190508381141561437b57614376826020604051908101604052806000815250614414565b61440c565b61440b826144066143c1846040805190810160405280600681526020017f5465737465640000000000000000000000000000000000000000000000000000815250614831565b614400886040805190810160405280600781526020017f416761696e737400000000000000000000000000000000000000000000000000815250614831565b87614854565b614414565b5b509392505050565b811561446657600115157fd204e27263771793b3472e4c07118500eb1ab892c2b2f0a4b90b33c33d4df42f604051808060200182810382526000815260200160200191505060405180910390a2614507565b600015157fd204e27263771793b3472e4c07118500eb1ab892c2b2f0a4b90b33c33d4df42f826040518080602001828103825283818151815260200191508051906020019080838360005b838110156144cc5780820151818401526020810190506144b1565b50505050905090810190601f1680156144f95780820380516001836020036101000a031916815260200191505b509250505060405180910390a25b5050565b60608061451984600a6150f6565b90506145258184614e58565b91505092915050565b6060806060600080606060008089965088955085519450865193506003848601016040519080825280601f01601f1916602001820160405280156145815781602001602082028038833980820191505090505b509250600091505b8482101561463b57858281518110151561459f57fe5b9060200101517f010000000000000000000000000000000000000000000000000000000000000090047f01000000000000000000000000000000000000000000000000000000000000000283828060010193508151811015156145fe57fe5b9060200101907effffffffffffffffffffffffffffffffffffffffffffffffffffffffffffff1916908160001a9053508180600101925050614589565b7f2000000000000000000000000000000000000000000000000000000000000000838280600101935081518110151561467057fe5b9060200101907effffffffffffffffffffffffffffffffffffffffffffffffffffffffffffff1916908160001a9053507f280000000000000000000000000000000000000000000000000000000000000083828060010193508151811015156146d557fe5b9060200101907effffffffffffffffffffffffffffffffffffffffffffffffffffffffffffff1916908160001a905350600091505b838210156147bc57868281518110151561472057fe5b9060200101517f010000000000000000000000000000000000000000000000000000000000000090047f010000000000000000000000000000000000000000000000000000000000000002838280600101935081518110151561477f57fe5b9060200101907effffffffffffffffffffffffffffffffffffffffffffffffffffffffffffff1916908160001a905350818060010192505061470a565b7f290000000000000000000000000000000000000000000000000000000000000083828060010193508151811015156147f157fe5b9060200101907effffffffffffffffffffffffffffffffffffffffffffffffffffffffffffff1916908160001a9053508297505050505050505092915050565b60608061483f84600a6153db565b905061484b8184614e58565b91505092915050565b606080606080600080600060606000808c98508b97508a965086519550885194508751935060058486880101016040519080825280601f01601f1916602001820160405280156148b35781602001602082028038833980820191505090505b509250600091505b8582101561496d5786828151811015156148d157fe5b9060200101517f010000000000000000000000000000000000000000000000000000000000000090047f010000000000000000000000000000000000000000000000000000000000000002838280600101935081518110151561493057fe5b9060200101907effffffffffffffffffffffffffffffffffffffffffffffffffffffffffffff1916908160001a90535081806001019250506148bb565b7f200000000000000000000000000000000000000000000000000000000000000083828060010193508151811015156149a257fe5b9060200101907effffffffffffffffffffffffffffffffffffffffffffffffffffffffffffff1916908160001a9053507f28000000000000000000000000000000000000000000000000000000000000008382806001019350815181101515614a0757fe5b9060200101907effffffffffffffffffffffffffffffffffffffffffffffffffffffffffffff1916908160001a905350600091505b84821015614aee578882815181101515614a5257fe5b9060200101517f010000000000000000000000000000000000000000000000000000000000000090047f0100000000000000000000000000000000000000000000000000000000000000028382806001019350815181101515614ab157fe5b9060200101907effffffffffffffffffffffffffffffffffffffffffffffffffffffffffffff1916908160001a9053508180600101925050614a3c565b7f2c000000000000000000000000000000000000000000000000000000000000008382806001019350815181101515614b2357fe5b9060200101907effffffffffffffffffffffffffffffffffffffffffffffffffffffffffffff1916908160001a9053507f20000000000000000000000000000000000000000000000000000000000000008382806001019350815181101515614b8857fe5b9060200101907effffffffffffffffffffffffffffffffffffffffffffffffffffffffffffff1916908160001a905350600091505b83821015614c6f578782815181101515614bd357fe5b9060200101517f010000000000000000000000000000000000000000000000000000000000000090047f0100000000000000000000000000000000000000000000000000000000000000028382806001019350815181101515614c3257fe5b9060200101907effffffffffffffffffffffffffffffffffffffffffffffffffffffffffffff1916908160001a9053508180600101925050614bbd565b7f29000000000000000000000000000000000000000000000000000000000000008382806001019350815181101515614ca457fe5b9060200101907effffffffffffffffffffffffffffffffffffffffffffffffffffffffffffff1916908160001a9053508299505050505050505050509392505050565b606080614cf3846155f2565b9050614cff8184614e58565b91505092915050565b6000606080600085925084915081518351141515614d295760009350614e4f565b600090505b8251811015614e4a578181815181101515614d4557fe5b9060200101517f010000000000000000000000000000000000000000000000000000000000000090047f0100000000000000000000000000000000000000000000000000000000000000027effffffffffffffffffffffffffffffffffffffffffffffffffffffffffffff19168382815181101515614dc057fe5b9060200101517f010000000000000000000000000000000000000000000000000000000000000090047f0100000000000000000000000000000000000000000000000000000000000000027effffffffffffffffffffffffffffffffffffffffffffffffffffffffffffff1916141515614e3d5760009350614e4f565b8080600101915050614d2e565b600193505b50505092915050565b6060806060600080606060008089965088955086519450855193506002848601016040519080825280601f01601f191660200182016040528015614eab5781602001602082028038833980820191505090505b509250600091505b83821015614f65578582815181101515614ec957fe5b9060200101517f010000000000000000000000000000000000000000000000000000000000000090047f0100000000000000000000000000000000000000000000000000000000000000028382806001019350815181101515614f2857fe5b9060200101907effffffffffffffffffffffffffffffffffffffffffffffffffffffffffffff1916908160001a9053508180600101925050614eb3565b7f3a000000000000000000000000000000000000000000000000000000000000008382806001019350815181101515614f9a57fe5b9060200101907effffffffffffffffffffffffffffffffffffffffffffffffffffffffffffff1916908160001a9053507f20000000000000000000000000000000000000000000000000000000000000008382806001019350815181101515614fff57fe5b9060200101907effffffffffffffffffffffffffffffffffffffffffffffffffffffffffffff1916908160001a905350600091505b848210156150e657868281518110151561504a57fe5b9060200101517f010000000000000000000000000000000000000000000000000000000000000090047f01000000000000000000000000000000000000000000000000000000000000000283828060010193508151811015156150a957fe5b9060200101907effffffffffffffffffffffffffffffffffffffffffffffffffffffffffffff1916908160001a9053508180600101925050615034565b8297505050505050505092915050565b60608060008060008060606000891480615113575060028860ff16105b80615121575060108860ff16115b15615163576040805190810160405280600181526020017f300000000000000000000000000000000000000000000000000000000000000081525096506153cf565b6101006040519080825280601f01601f1916602001820160405280156151985781602001602082028038833980820191505090505b5095506000935060008912156151b357886000039850600193505b5b600089131561522e576151d48860ff168a8115156151ce57fe5b076159db565b86868060010197508151811015156151e857fe5b9060200101907effffffffffffffffffffffffffffffffffffffffffffffffffffffffffffff1916908160001a9053508760ff168981151561522657fe5b0598506151b4565b8492506000915083156152e257828060010193505060019150826040519080825280601f01601f19166020018201604052801561527a5781602001602082028038833980820191505090505b5090507f2d000000000000000000000000000000000000000000000000000000000000008160008151811015156152ad57fe5b9060200101907effffffffffffffffffffffffffffffffffffffffffffffffffffffffffffff1916908160001a905350615319565b826040519080825280601f01601f1916602001820160405280156153155781602001602082028038833980820191505090505b5090505b5b828210156153cb578560018385030381518110151561533557fe5b9060200101517f010000000000000000000000000000000000000000000000000000000000000090047f010000000000000000000000000000000000000000000000000000000000000002818381518110151561538e57fe5b9060200101907effffffffffffffffffffffffffffffffffffffffffffffffffffffffffffff1916908160001a905350818060010192505061531a565b8096505b50505050505092915050565b606080600060606000808714806153f5575060028660ff16105b80615403575060108660ff16115b15615445576040805190810160405280600181526020017f300000000000000000000000000000000000000000000000000000000000000081525094506155e8565b6101006040519080825280601f01601f19166020018201604052801561547a5781602001602082028038833980820191505090505b5093505b60008711156154f85761549e8660ff168881151561549857fe5b066159db565b84848060010195508151811015156154b257fe5b9060200101907effffffffffffffffffffffffffffffffffffffffffffffffffffffffffffff1916908160001a9053508560ff16878115156154f057fe5b04965061547e565b826040519080825280601f01601f19166020018201604052801561552b5781602001602082028038833980820191505090505b509150600090505b828110156155e4578360018285030381518110151561554e57fe5b9060200101517f010000000000000000000000000000000000000000000000000000000000000090047f01000000000000000000000000000000000000000000000000000000000000000282828151811015156155a757fe5b9060200101907effffffffffffffffffffffffffffffffffffffffffffffffffffffffffffff1916908160001a9053508080600101915050615533565b8194505b5050505092915050565b60608082156157ba5760046040519080825280601f01601f19166020018201604052801561562f5781602001602082028038833980820191505090505b5090507f740000000000000000000000000000000000000000000000000000000000000081600081518110151561566257fe5b9060200101907effffffffffffffffffffffffffffffffffffffffffffffffffffffffffffff1916908160001a9053507f72000000000000000000000000000000000000000000000000000000000000008160018151811015156156c257fe5b9060200101907effffffffffffffffffffffffffffffffffffffffffffffffffffffffffffff1916908160001a9053507f750000000000000000000000000000000000000000000000000000000000000081600281518110151561572257fe5b9060200101907effffffffffffffffffffffffffffffffffffffffffffffffffffffffffffff1916908160001a9053507f650000000000000000000000000000000000000000000000000000000000000081600381518110151561578257fe5b9060200101907effffffffffffffffffffffffffffffffffffffffffffffffffffffffffffff1916908160001a9053508091506159d5565b60056040519080825280601f01601f1916602001820160405280156157ee5781602001602082028038833980820191505090505b5090507f660000000000000000000000000000000000000000000000000000000000000081600081518110151561582157fe5b9060200101907effffffffffffffffffffffffffffffffffffffffffffffffffffffffffffff1916908160001a9053507f610000000000000000000000000000000000000000000000000000000000000081600181518110151561588157fe5b9060200101907effffffffffffffffffffffffffffffffffffffffffffffffffffffffffffff1916908160001a9053507f6c000000000000000000000000000000000000000000000000000000000000008160028151811015156158e157fe5b9060200101907effffffffffffffffffffffffffffffffffffffffffffffffffffffffffffff1916908160001a9053507f730000000000000000000000000000000000000000000000000000000000000081600381518110151561594157fe5b9060200101907effffffffffffffffffffffffffffffffffffffffffffffffffffffffffffff1916908160001a9053507f65000000000000000000000000000000000000000000000000000000000000008160048151811015156159a157fe5b9060200101907effffffffffffffffffffffffffffffffffffffffffffffffffffffffffffff1916908160001a9053508091505b50919050565b6000600a8260ff161015615a58577f30000000000000000000000000000000000000000000000000000000000000007f0100000000000000000000000000000000000000000000000000000000000000900482017f0100000000000000000000000000000000000000000000000000000000000000029050615afd565b60108260ff161015615ad6577f61000000000000000000000000000000000000000000000000000000000000007f01000000000000000000000000000000000000000000000000000000000000009004600a8303017f0100000000000000000000000000000000000000000000000000000000000000029050615afd565b60007f01000000000000000000000000000000000000000000000000000000000000000290505b9190505600a165627a7a723058206348c609539cf4ba32da6dc7a90db25f7f48d5ee860e19467020f3b2d69c8cec0029",
  "source": "// This file taken from here: https://raw.githubusercontent.com/smartcontractproduction/sol-unit/master/contracts/src/Assertions.sol\n// It was renamed to Assert.sol by Tim Coulter.\n\npragma solidity ^0.4.17;\n\n/*\n    File: Assertions.slb\n\n    Author: Andreas Olofsson (androlo1980@gmail.com)\n\n    Library: Assertions\n\n    Assertions for unit testing contracts. Tests are run with the\n    <solUnit at https://github.com/smartcontractproduction/sol-unit>\n    unit-testing framework.\n\n    (start code)\n    contract ModAdder {\n\n        function addMod(uint a, uint b, uint modulus) constant returns (uint sum) {\n            if (modulus == 0)\n                throw;\n            return addmod(a, b, modulus);\n        }\n\n    }\n\n    contract SomeTest {\n        using Assertions for uint;\n\n        function testAdd() {\n            var adder = new ModAdder();\n            adder.addMod(50, 66, 30).equal(26, \"addition returned the wrong sum\");\n        }\n    }\n    (end)\n\n    It is also possible to extend <Test>, to have all bindings (using) properly set up.\n\n    (start code)\n\n    contract SomeTest is Test {\n\n        function testAdd() {\n            var adder = new ModAdder();\n            adder.addMod(50, 66, 30).equal(26, \"addition returned the wrong sum\");\n        }\n    }\n    (end)\n*/\nlibrary Assert {\n\n  // Constant: ADDRESS_NULL\n  // The null address: 0\n  address constant ADDRESS_NULL = 0x0000000000000000000000000000000000000000;\n  // Constant: BYTES32_NULL\n  // The null bytes32: 0\n  bytes32 constant BYTES32_NULL = 0x0;\n  // Constant: STRING_NULL\n  // The null string: \"\"\n  string constant STRING_NULL = \"\";\n\n  uint8 constant ZERO = uint8(byte('0'));\n  uint8 constant A = uint8(byte('a'));\n\n  byte constant MINUS = byte('-');\n\n  /*\n      Event: TestEvent\n\n      Fired when an assertion is made.\n\n      Params:\n          result (bool) - Whether or not the assertion holds.\n          message (string) - A message to display if the assertion does not hold.\n  */\n  event TestEvent(bool indexed result, string message);\n\n  // ************************************** general **************************************\n\n  /*\n      Function: fail()\n\n      Mark the test as failed.\n\n      Params:\n          message (string) - A message associated with the failure.\n\n      Returns:\n          result (bool) - false.\n  */\n  function fail(string message) public returns (bool result) {\n    _report(false, message);\n    return false;\n  }\n\n  // ************************************** strings **************************************\n\n  /*\n      Function: equal(string)\n\n      Assert that two strings are equal.\n\n      : _stringsEqual(A, B) == true\n\n      Params:\n          A (string) - The first string.\n          B (string) - The second string.\n          message (string) - A message that is sent if the assertion fails.\n\n      Returns:\n          result (bool) - The result.\n  */\n  function equal(string a, string b, string message) public returns (bool result) {\n    result = _stringsEqual(a, b);\n    if (result)\n      _report(result, message);\n    else\n      _report(result, _appendTagged(_tag(a, \"Tested\"), _tag(b, \"Against\"), message));\n  }\n\n  /*\n      Function: notEqual(string)\n\n      Assert that two strings are not equal.\n\n      : _stringsEqual(A, B) == false\n\n      Params:\n          A (string) - The first string.\n          B (string) - The second string.\n          message (string) - A message that is sent if the assertion fails.\n\n      Returns:\n          result (bool) - The result.\n  */\n  function notEqual(string a, string b, string message) public returns (bool result) {\n    result = !_stringsEqual(a, b);\n    if (result)\n      _report(result, message);\n    else\n      _report(result, _appendTagged(_tag(a, \"Tested\"), _tag(b, \"Against\"), message));\n  }\n\n  /*\n      Function: isEmpty(string)\n\n      Assert that a string is empty.\n\n      : _stringsEqual(str, STRING_NULL) == true\n\n      Params:\n          str (string) - The string.\n          message (string) - A message that is sent if the assertion fails.\n\n      Returns:\n          result (bool) - The result.\n  */\n  function isEmpty(string str, string message) public returns (bool result) {\n    result = _stringsEqual(str, STRING_NULL);\n    if (result)\n      _report(result, message);\n    else\n      _report(result, _appendTagged(_tag(str, \"Tested\"), message));\n  }\n\n  /*\n      Function: isNotEmpty(string)\n\n      Assert that a string is not empty.\n\n      : _stringsEqual(str, STRING_NULL) == false\n\n      Params:\n          str (string) - The string.\n          message (string) - A message that is sent if the assertion fails.\n\n      Returns:\n          result (bool) - The result.\n  */\n  function isNotEmpty(string str, string message) public returns (bool result) {\n    result = !_stringsEqual(str, STRING_NULL);\n    if (result)\n      _report(result, message);\n    else\n      _report(result, _appendTagged(_tag(str, \"Tested\"), message));\n  }\n\n  // ************************************** bytes32 **************************************\n\n  /*\n      Function: equal(bytes32)\n\n      Assert that two 'bytes32' are equal.\n\n      : A == B\n\n      Params:\n          A (bytes32) - The first 'bytes32'.\n          B (bytes32) - The second 'bytes32'.\n          message (string) - A message that is sent if the assertion fails.\n\n      Returns:\n          result (bool) - The result.\n  */\n  function equal(bytes32 a, bytes32 b, string message) public returns (bool result) {\n    result = (a == b);\n    _report(result, message);\n  }\n\n  /*\n      Function: notEqual(bytes32)\n\n      Assert that two 'bytes32' are not equal.\n\n      : A != B\n\n      Params:\n          A (bytes32) - The first 'bytes32'.\n          B (bytes32) - The second 'bytes32'.\n          message (string) - A message that is sent if the assertion fails.\n\n      Returns:\n          result (bool) - The result.\n  */\n  function notEqual(bytes32 a, bytes32 b, string message) public returns (bool result) {\n    result = (a != b);\n    _report(result, message);\n  }\n\n  /*\n      Function: isZero(bytes32)\n\n      Assert that a 'bytes32' is zero.\n\n      : bts == BYTES32_NULL\n\n      Params:\n          bts (bytes32) - The 'bytes32'.\n          message (string) - A message that is sent if the assertion fails.\n\n      Returns:\n          result (bool) - The result.\n  */\n  function isZero(bytes32 bts, string message) public returns (bool result) {\n    result = (bts == BYTES32_NULL);\n    _report(result, message);\n  }\n\n  /*\n      Function: isNotZero(bytes32)\n\n      Assert that a 'bytes32' is not zero.\n\n      : bts != BYTES32_NULL\n\n      Params:\n          bts (bytes32) - The 'bytes32'.\n          message (string) - A message that is sent if the assertion fails.\n\n      Returns:\n          result (bool) - The result.\n  */\n  function isNotZero(bytes32 bts, string message) public returns (bool result) {\n    result = (bts != BYTES32_NULL);\n    _report(result, message);\n  }\n\n  // ************************************** address **************************************\n\n  /*\n      Function: equal(address)\n\n      Assert that two addresses are equal.\n\n      : A == B\n\n      Params:\n          A (address) - The first address.\n          B (address) - The second address.\n          message (string) - A message that is sent if the assertion fails.\n\n      Returns:\n          result (bool) - The result.\n  */\n  function equal(address a, address b, string message) public returns (bool result) {\n    result = (a == b);\n    _report(result, message);\n  }\n  /*\n      Function: notEqual(address)\n\n      Assert that two addresses are not equal.\n\n      : A != B\n\n      Params:\n          A (address) - The first address.\n          B (address) - The second address.\n          message (string) - A message that is sent if the assertion fails.\n\n      Returns:\n          result (bool) - The result.\n  */\n  function notEqual(address a, address b, string message) public returns (bool result) {\n    result = (a != b);\n    _report(result, message);\n  }\n\n  /*\n      Function: isZero(address)\n\n      Assert that an address is zero.\n\n      : addr == ADDRESS_NULL\n\n      Params:\n          addr (address) - The address.\n          message (string) - A message that is sent if the assertion fails.\n\n      Returns:\n          result (bool) - The result.\n  */\n  function isZero(address addr, string message) public returns (bool result) {\n    result = (addr == ADDRESS_NULL);\n    _report(result, message);\n  }\n\n  /*\n      Function: isNotZero(address)\n\n      Assert that an address is not zero.\n\n      : addr != ADDRESS_NULL\n\n      Params:\n          addr (address) - The address.\n          message (string) - A message that is sent if the assertion fails.\n\n      Returns:\n          result (bool) - The result.\n  */\n  function isNotZero(address addr, string message) public returns (bool result) {\n    result = (addr != ADDRESS_NULL);\n    _report(result, message);\n  }\n\n  // ************************************** bool **************************************\n\n  /*\n      Function: isTrue\n\n      Assert that a boolean is 'true'.\n\n      : b == true\n\n      Params:\n          b (bool) - The boolean.\n          message (string) - A message that is sent if the assertion fails.\n\n      Returns:\n          result (bool) - The result.\n  */\n  function isTrue(bool b, string message) public returns (bool result) {\n    result = b;\n    _report(result, message);\n  }\n\n  /*\n      Function: isFalse\n\n      Assert that a boolean is 'false'.\n\n      : b == false\n\n      Params:\n          b (bool) - The boolean.\n          message (string) - A message that is sent if the assertion fails.\n\n      Returns:\n          result (bool) - The result.\n  */\n  function isFalse(bool b, string message) public returns (bool result) {\n    result = !b;\n    _report(result, message);\n  }\n\n  /*\n      Function: equal(bool)\n\n      Assert that two booleans are equal.\n\n      : A == B\n\n      Params:\n          A (bool) - The first boolean.\n          B (bool) - The second boolean.\n          message (string) - A message that is sent if the assertion fails.\n\n      Returns:\n          result (bool) - The result.\n  */\n  function equal(bool a, bool b, string message) public returns (bool result) {\n    result = (a == b);\n    if (result)\n      _report(result, message);\n    else\n      _report(result, _appendTagged(_tag(a, \"Tested\"), _tag(b, \"Against\"), message));\n  }\n\n  /*\n      Function: notEqual(bool)\n\n      Assert that two booleans are not equal.\n\n      : A != B\n\n      Params:\n          A (bool) - The first boolean.\n          B (bool) - The second boolean.\n          message (string) - A message that is sent if the assertion fails.\n\n      Returns:\n          result (bool) - The result.\n  */\n  function notEqual(bool a, bool b, string message) public returns (bool result) {\n    result = (a != b);\n    if (result)\n      _report(result, message);\n    else\n      _report(result, _appendTagged(_tag(a, \"Tested\"), _tag(b, \"Against\"), message));\n  }\n\n  // ************************************** uint **************************************\n\n  /*\n      Function: equal(uint)\n\n      Assert that two (256 bit) unsigned integers are equal.\n\n      : A == B\n\n      Params:\n          A (uint) - The first uint.\n          B (uint) - The second uint.\n          message (string) - A message that is sent if the assertion fails.\n\n      Returns:\n          result (bool) - The result.\n  */\n  function equal(uint a, uint b, string message) public returns (bool result) {\n    result = (a == b);\n    if (result)\n      _report(result, message);\n    else\n      _report(result, _appendTagged(_tag(a, \"Tested\"), _tag(b, \"Against\"), message));\n  }\n\n  /*\n      Function: notEqual(uint)\n\n      Assert that two (256 bit) unsigned integers are not equal.\n\n      : A != B\n\n      Params:\n          A (uint) - The first uint.\n          B (uint) - The second uint.\n          message (string) - A message that is sent if the assertion fails.\n\n      Returns:\n          result (bool) - The result.\n  */\n  function notEqual(uint a, uint b, string message) public returns (bool result) {\n    result = (a != b);\n    if (result)\n      _report(result, message);\n    else\n      _report(result, _appendTagged(_tag(a, \"Tested\"), _tag(b, \"Against\"), message));\n  }\n\n  /*\n      Function: isAbove(uint)\n\n      Assert that the uint 'A' is greater than the uint 'B'.\n\n      : A > B\n\n      Params:\n          A (uint) - The first uint.\n          B (uint) - The second uint.\n          message (string) - A message that is sent if the assertion fails.\n\n      Returns:\n          result (bool) - The result.\n  */\n  function isAbove(uint a, uint b, string message) public returns (bool result) {\n    result = (a > b);\n    if (result)\n      _report(result, message);\n    else\n      _report(result, _appendTagged(_tag(a, \"Tested\"), _tag(b, \"Against\"), message));\n  }\n\n  /*\n      Function: isAtLeast(uint)\n\n      Assert that the uint 'A' is greater than or equal to the uint 'B'.\n\n      : A >= B\n\n      Params:\n          A (uint) - The first uint.\n          B (uint) - The second uint.\n          message (string) - A message that is sent if the assertion fails.\n\n      Returns:\n          result (bool) - The result.\n  */\n  function isAtLeast(uint a, uint b, string message) public returns (bool result) {\n    result = (a >= b);\n    if (result)\n      _report(result, message);\n    else\n      _report(result, _appendTagged(_tag(a, \"Tested\"), _tag(b, \"Against\"), message));\n  }\n\n  /*\n      Function: isBelow(uint)\n\n      Assert that the uint 'A' is lesser than the uint 'B'.\n\n      : A < B\n\n      Params:\n          A (uint) - The first uint.\n          B (uint) - The second uint.\n          message (string) - A message that is sent if the assertion fails.\n\n      Returns:\n          result (bool) - The result.\n  */\n  function isBelow(uint a, uint b, string message) public returns (bool result) {\n    result = (a < b);\n    if (result)\n      _report(result, message);\n    else\n      _report(result, _appendTagged(_tag(a, \"Tested\"), _tag(b, \"Against\"), message));\n  }\n\n  /*\n      Function: isAtMost(uint)\n\n      Assert that the uint 'A' is lesser than or equal to the uint 'B'.\n\n      : A <= B\n\n      Params:\n          A (uint) - The first uint.\n          B (uint) - The second uint.\n          message (string) - A message that is sent if the assertion fails.\n\n      Returns:\n          result (bool) - The result.\n  */\n  function isAtMost(uint a, uint b, string message) public returns (bool result) {\n    result = (a <= b);\n    if (result)\n      _report(result, message);\n    else\n      _report(result, _appendTagged(_tag(a, \"Tested\"), _tag(b, \"Against\"), message));\n  }\n\n  /*\n      Function: isZero(uint)\n\n      Assert that a (256 bit) unsigned integer is 0.\n\n      : number == 0\n\n      Params:\n          number (uint) - The uint.\n          message (string) - A message that is sent if the assertion fails.\n\n      Returns:\n          result (bool) - The result.\n  */\n  function isZero(uint number, string message) public returns (bool result) {\n    result = (number == 0);\n    if (result)\n      _report(result, message);\n    else\n      _report(result, _appendTagged(_tag(number, \"Tested\"), message));\n  }\n\n  /*\n      Function: isNotZero(uint)\n\n      Assert that a (256 bit) unsigned integer is not 0.\n\n      : number != 0\n\n      Params:\n          number (uint) - The uint.\n          message (string) - A message that is sent if the assertion fails.\n\n      Returns:\n          result (bool) - The result.\n  */\n  function isNotZero(uint number, string message) public returns (bool result) {\n    result = (number != 0);\n    if (result)\n      _report(result, message);\n    else\n      _report(result, _appendTagged(_tag(number, \"Tested\"), message));\n  }\n\n  // ************************************** int **************************************\n\n  /*\n      Function: equal(int)\n\n      Assert that two (256 bit) signed integers are equal.\n\n      : A == B\n\n      Params:\n          A (int) - The first int.\n          B (int) - The second int.\n          message (string) - A message that is sent if the assertion fails.\n\n      Returns:\n          result (bool) - The result.\n  */\n  function equal(int a, int b, string message) public returns (bool result) {\n    result = (a == b);\n    if (result)\n      _report(result, message);\n    else\n      _report(result, _appendTagged(_tag(a, \"Tested\"), _tag(b, \"Against\"), message));\n  }\n\n  /*\n      Function: notEqual(int)\n\n      Assert that two (256 bit) signed integers are not equal.\n\n      : A != B\n\n      Params:\n          A (int) - The first int.\n          B (int) - The second int.\n          message (string) - A message that is sent if the assertion fails.\n\n      Returns:\n          result (bool) - The result.\n  */\n  function notEqual(int a, int b, string message) public returns (bool result) {\n    result = (a != b);\n    if (result)\n      _report(result, message);\n    else\n      _report(result, _appendTagged(_tag(a, \"Tested\"), _tag(b, \"Against\"), message));\n  }\n\n  /*\n      Function: isAbove(int)\n\n      Assert that the int 'A' is greater than the int 'B'.\n\n      : A > B\n\n      Params:\n          A (int) - The first int.\n          B (int) - The second int.\n          message (string) - A message that is sent if the assertion fails.\n\n      Returns:\n          result (bool) - The result.\n  */\n  function isAbove(int a, int b, string message) public returns (bool result) {\n    result = (a > b);\n    if (result)\n      _report(result, message);\n    else\n      _report(result, _appendTagged(_tag(a, \"Tested\"), _tag(b, \"Against\"), message));\n  }\n\n  /*\n      Function: isAtLeast(int)\n\n      Assert that the int 'A' is greater than or equal to the int 'B'.\n\n      : A >= B\n\n      Params:\n          A (int) - The first int.\n          B (int) - The second int.\n          message (string) - A message that is sent if the assertion fails.\n\n      Returns:\n          result (bool) - The result.\n  */\n  function isAtLeast(int a, int b, string message) public returns (bool result) {\n    result = (a >= b);\n    if (result)\n      _report(result, message);\n    else\n      _report(result, _appendTagged(_tag(a, \"Tested\"), _tag(b, \"Against\"), message));\n  }\n\n  /*\n      Function: isBelow(int)\n\n      Assert that the int 'A' is lesser than the int 'B'.\n\n      : A < B\n\n      Params:\n          A (int) - The first int.\n          B (int) - The second int.\n          message (string) - A message that is sent if the assertion fails.\n\n      Returns:\n          result (bool) - The result.\n  */\n  function isBelow(int a, int b, string message) public returns (bool result) {\n    result = (a < b);\n    if (result)\n      _report(result, message);\n    else\n      _report(result, _appendTagged(_tag(a, \"Tested\"), _tag(b, \"Against\"), message));\n  }\n\n  /*\n      Function: isAtMost(int)\n\n      Assert that the int 'A' is lesser than or equal to the int 'B'.\n\n      : A <= B\n\n      Params:\n          A (int) - The first int.\n          B (int) - The second int.\n          message (string) - A message that is sent if the assertion fails.\n\n      Returns:\n          result (bool) - The result.\n  */\n  function isAtMost(int a, int b, string message) public returns (bool result) {\n    result = (a <= b);\n    if (result)\n      _report(result, message);\n    else\n      _report(result, _appendTagged(_tag(a, \"Tested\"), _tag(b, \"Against\"), message));\n  }\n\n  /*\n      Function: isZero(int)\n\n      Assert that a (256 bit) signed integer is 0.\n\n      : number == 0\n\n      Params:\n          number (int) - The int.\n          message (string) - A message that is sent if the assertion fails.\n\n      Returns:\n          result (bool) - The result.\n  */\n  function isZero(int number, string message) public returns (bool result) {\n    result = (number == 0);\n    if (result)\n      _report(result, message);\n    else\n      _report(result, _appendTagged(_tag(number, \"Tested\"), message));\n  }\n\n  /*\n      Function: isNotZero(int)\n\n      Assert that a (256 bit) signed integer is not 0.\n\n      : number != 0\n\n      Params:\n          number (int) - The int.\n          message (string) - A message that is sent if the assertion fails.\n\n      Returns:\n          result (bool) - The result.\n  */\n  function isNotZero(int number, string message) public returns (bool result) {\n    result = (number != 0);\n    if (result)\n      _report(result, message);\n    else\n      _report(result, _appendTagged(_tag(number, \"Tested\"), message));\n  }\n\n  // ************************************** uint[] **************************************\n\n  /*\n      Function: equal(uint[])\n\n      Assert that two 'uint[ ]' are equal.\n\n      : arrA.length == arrB.length\n\n      and, for all valid indices 'i'\n\n      : arrA[i] == arrB[i]\n\n      Params:\n          A (uint[]) - The first array.\n          B (uint[]) - The second array.\n          message (string) - A message that is sent if the assertion fails.\n\n      Returns:\n          result (bool) - The result.\n  */\n  function equal(uint[] arrA, uint[] arrB, string message) public returns (bool result) {\n    result = arrA.length == arrB.length;\n    if (result) {\n      for (uint i = 0; i < arrA.length; i++) {\n        if (arrA[i] != arrB[i]) {\n          result = false;\n          break;\n        }\n      }\n    }\n    _report(result, message);\n  }\n\n  /*\n      Function: notEqual(uint[])\n\n      Assert that two 'uint[]' are not equal.\n\n      : arrA.length != arrB.length\n\n      or, for some valid index 'i'\n\n      : arrA[i] != arrB[i]\n\n      Params:\n          A (uint[]) - The first string.\n          B (uint[]) - The second string.\n          message (string) - A message that is sent if the assertion fails.\n\n      Returns:\n          result (bool) - The result.\n  */\n  function notEqual(uint[] arrA, uint[] arrB, string message) public returns (bool result) {\n    result = arrA.length == arrB.length;\n    if (result) {\n      for (uint i = 0; i < arrA.length; i++) {\n        if (arrA[i] != arrB[i]) {\n          result = false;\n          break;\n        }\n      }\n    }\n    result = !result;\n    _report(result, message);\n  }\n\n  /*\n      Function: lengthEqual(uint[])\n\n      Assert that the length of a 'uint[]' is equal to a given value.\n\n      : arr.length == length\n\n      Params:\n          arr (uint[]) - The array.\n          length (uint) - The length.\n          message (string) - A message that is sent if the assertion fails.\n\n      Returns:\n          result (bool) - The result.\n  */\n  function lengthEqual(uint[] arr, uint length, string message) public returns (bool result) {\n    uint arrLength = arr.length;\n    if (arrLength == length)\n      _report(result, \"\");\n    else\n      _report(result, _appendTagged(_tag(arrLength, \"Tested\"), _tag(length, \"Against\"), message));\n  }\n\n  /*\n      Function: lengthNotEqual(uint[])\n\n      Assert that the length of a 'uint[]' is not equal to a given value.\n\n      : arr.length != length\n\n      Params:\n          arr (uint[]) - The array.\n          length (uint) - The length.\n          message (string) - A message that is sent if the assertion fails.\n\n      Returns:\n          result (bool) - The result.\n  */\n  function lengthNotEqual(uint[] arr, uint length, string message) public returns (bool result) {\n    uint arrLength = arr.length;\n    if (arrLength != arr.length)\n      _report(result, \"\");\n    else\n      _report(result, _appendTagged(_tag(arrLength, \"Tested\"), _tag(length, \"Against\"), message));\n  }\n\n  // ************************************** int[] **************************************\n\n  /*\n      Function: equal(int[])\n\n      Assert that two 'int[]' are equal.\n\n      : arrA.length == arrB.length\n\n      and, for all valid indices 'i'\n\n      : arrA[i] == arrB[i]\n\n      Params:\n          A (int[]) - The first array.\n          B (int[]) - The second array.\n          message (string) - A message that is sent if the assertion fails.\n\n      Returns:\n          result (bool) - The result.\n  */\n  function equal(int[] arrA, int[] arrB, string message) public returns (bool result) {\n    result = arrA.length == arrB.length;\n    if (result) {\n      for (uint i = 0; i < arrA.length; i++) {\n        if (arrA[i] != arrB[i]) {\n          result = false;\n          break;\n        }\n      }\n    }\n    _report(result, message);\n  }\n\n  /*\n      Function: notEqual(int[])\n\n      Assert that two 'int[]' are not equal.\n\n      : arrA.length != arrB.length\n\n      or, for some valid index 'i'\n\n      : arrA[i] != arrB[i]\n\n      Params:\n          A (int[]) - The first string.\n          B (int[]) - The second string.\n          message (string) - A message that is sent if the assertion fails.\n\n      Returns:\n          result (bool) - The result.\n  */\n  function notEqual(int[] arrA, int[] arrB, string message) public returns (bool result) {\n    result = arrA.length == arrB.length;\n    if (result) {\n      for (uint i = 0; i < arrA.length; i++) {\n        if (arrA[i] != arrB[i]) {\n          result = false;\n          break;\n        }\n      }\n    }\n    result = !result;\n    _report(result, message);\n  }\n\n  /*\n      Function: lengthEqual(int[])\n\n      Assert that the length of an 'int[]' is equal to a given value.\n\n      : arr.length == length\n\n      Params:\n          arr (int[]) - The array.\n          length (uint) - The length.\n          message (string) - A message that is sent if the assertion fails.\n\n      Returns:\n          result (bool) - The result.\n  */\n  function lengthEqual(int[] arr, uint length, string message) public returns (bool result) {\n    uint arrLength = arr.length;\n    if (arrLength == length)\n      _report(result, \"\");\n    else\n      _report(result, _appendTagged(_tag(arrLength, \"Tested\"), _tag(length, \"Against\"), message));\n  }\n\n  /*\n      Function: lengthNotEqual(int[])\n\n      Assert that the length of an 'int[]' is not equal to a given value.\n\n      : arr.length != length\n\n      Params:\n          arr (int[]) - The array.\n          length (uint) - The length.\n          message (string) - A message that is sent if the assertion fails.\n\n      Returns:\n          result (bool) - The result.\n  */\n  function lengthNotEqual(int[] arr, uint length, string message) public returns (bool result) {\n    uint arrLength = arr.length;\n    if (arrLength != arr.length)\n      _report(result, \"\");\n    else\n      _report(result, _appendTagged(_tag(arrLength, \"Tested\"), _tag(length, \"Against\"), message));\n  }\n\n  // ************************************** address[] **************************************\n\n  /*\n      Function: equal(address[])\n\n      Assert that two 'address[]' are equal.\n\n      : arrA.length == arrB.length\n\n      and, for all valid indices 'i'\n\n      : arrA[i] == arrB[i]\n\n      Params:\n          A (address[]) - The first array.\n          B (address[]) - The second array.\n          message (string) - A message that is sent if the assertion fails.\n\n      Returns:\n          result (bool) - The result.\n  */\n  function equal(address[] arrA, address[] arrB, string message) public returns (bool result) {\n    result = arrA.length == arrB.length;\n    if (result) {\n      for (uint i = 0; i < arrA.length; i++) {\n        if (arrA[i] != arrB[i]) {\n          result = false;\n          break;\n        }\n      }\n    }\n    _report(result, message);\n  }\n\n  /*\n      Function: notEqual(address[])\n\n      Assert that two 'address[]' are not equal.\n\n      : arrA.length != arrB.length\n\n      or, for some valid index 'i'\n\n      : arrA[i] != arrB[i]\n\n      Params:\n          A (address[]) - The first string.\n          B (address[]) - The second string.\n          message (string) - A message that is sent if the assertion fails.\n\n      Returns:\n          result (bool) - The result.\n  */\n  function notEqual(address[] arrA, address[] arrB, string message) public returns (bool result) {\n    result = arrA.length == arrB.length;\n    if (result) {\n      for (uint i = 0; i < arrA.length; i++) {\n        if (arrA[i] != arrB[i]) {\n          result = false;\n          break;\n        }\n      }\n    }\n    result = !result;\n    _report(result, message);\n  }\n\n  /*\n      Function: lengthEqual(address[])\n\n      Assert that the length of an 'address[]' is equal to a given value.\n\n      : arr.length == length\n\n      Params:\n          arr (address[]) - The array.\n          length (uint) - The length.\n          message (string) - A message that is sent if the assertion fails.\n\n      Returns:\n          result (bool) - The result.\n  */\n  function lengthEqual(address[] arr, uint length, string message) public returns (bool result) {\n    uint arrLength = arr.length;\n    if (arrLength == length)\n      _report(result, \"\");\n    else\n      _report(result, _appendTagged(_tag(arrLength, \"Tested\"), _tag(length, \"Against\"), message));\n  }\n\n  /*\n      Function: lengthNotEqual(address[])\n\n      Assert that the length of an 'address[]' is not equal to a given value.\n\n      : arr.length != length\n\n      Params:\n          arr (address[]) - The array.\n          length (uint) - The length.\n          message (string) - A message that is sent if the assertion fails.\n\n      Returns:\n          result (bool) - The result.\n  */\n  function lengthNotEqual(address[] arr, uint length, string message) public returns (bool result) {\n    uint arrLength = arr.length;\n    if (arrLength != arr.length)\n      _report(result, \"\");\n    else\n      _report(result, _appendTagged(_tag(arrLength, \"Tested\"), _tag(length, \"Against\"), message));\n  }\n\n  // ************************************** bytes32[] **************************************\n\n  /*\n      Function: equal(bytes32[])\n\n      Assert that two 'bytes32[]' are equal.\n\n      : arrA.length == arrB.length\n\n      and, for all valid indices 'i'\n\n      : arrA[i] == arrB[i]\n\n      Params:\n          A (bytes32[]) - The first array.\n          B (bytes32[]) - The second array.\n          message (string) - A message that is sent if the assertion fails.\n\n      Returns:\n          result (bool) - The result.\n  */\n  function equal(bytes32[] arrA, bytes32[] arrB, string message) public returns (bool result) {\n    result = arrA.length == arrB.length;\n    if (result) {\n      for (uint i = 0; i < arrA.length; i++) {\n        if (arrA[i] != arrB[i]) {\n          result = false;\n          break;\n        }\n      }\n    }\n    _report(result, message);\n  }\n\n  /*\n      Function: notEqual(bytes32[])\n\n      Assert that two 'bytes32[]' are not equal.\n\n      : arrA.length != arrB.length\n\n      or, for some valid index 'i'\n\n      : arrA[i] != arrB[i]\n\n      Params:\n          A (bytes32[]) - The first string.\n          B (bytes32[]) - The second string.\n          message (string) - A message that is sent if the assertion fails.\n\n      Returns:\n          result (bool) - The result.\n  */\n  function notEqual(bytes32[] arrA, bytes32[] arrB, string message) public returns (bool result) {\n    result = arrA.length == arrB.length;\n    if (result) {\n      for (uint i = 0; i < arrA.length; i++) {\n        if (arrA[i] != arrB[i]) {\n          result = false;\n          break;\n        }\n      }\n    }\n    result = !result;\n    _report(result, message);\n  }\n\n  /*\n      Function: lengthEqual(bytes32[])\n\n      Assert that the length of an 'bytes32[]' is equal to a given value.\n\n      : arr.length == length\n\n      Params:\n          arr (bytes32[]) - The array.\n          length (uint) - The length.\n          message (string) - A message that is sent if the assertion fails.\n\n      Returns:\n          result (bool) - The result.\n  */\n  function lengthEqual(bytes32[] arr, uint length, string message) public returns (bool result) {\n    uint arrLength = arr.length;\n    if (arrLength == length)\n      _report(result, \"\");\n    else\n      _report(result, _appendTagged(_tag(arrLength, \"Tested\"), _tag(length, \"Against\"), message));\n  }\n\n  /*\n      Function: lengthNotEqual(bytes32[])\n\n      Assert that the length of an 'bytes32[]' is not equal to a given value.\n\n      : arr.length != length\n\n      Params:\n          arr (bytes32[]) - The array.\n          length (uint) - The length.\n          message (string) - A message that is sent if the assertion fails.\n\n      Returns:\n          result (bool) - The result.\n  */\n  function lengthNotEqual(bytes32[] arr, uint length, string message) public returns (bool result) {\n    uint arrLength = arr.length;\n    if (arrLength != arr.length)\n      _report(result, \"\");\n    else\n      _report(result, _appendTagged(_tag(arrLength, \"Tested\"), _tag(length, \"Against\"), message));\n  }\n\n  // ************************************** balances **************************************\n\n  /*\n      Function: balanceEqual\n\n      Assert that the balance of an account 'A' is equal to a given number 'b'.\n\n      : A.balance = b\n\n      Params:\n          A (address) - The first address.\n          b (uint) - The balance.\n          message (string) - A message that is sent if the assertion fails.\n\n      Returns:\n          result (bool) - The result.\n  */\n  function balanceEqual(address a, uint b, string message) public returns (bool result) {\n    result = (a.balance == b);\n    _report(result, message);\n  }\n\n  /*\n      Function: balanceNotEqual\n\n      Assert that the balance of an account 'A' is not equal to a given number 'b'.\n\n      : A.balance != b\n\n      Params:\n          A (address) - The first address.\n          b (uint) - The balance.\n          message (string) - A message that is sent if the assertion fails.\n\n      Returns:\n          result (bool) - The result.\n  */\n  function balanceNotEqual(address a, uint b, string message) public returns (bool result) {\n    result = (a.balance != b);\n    _report(result, message);\n  }\n\n  /*\n      Function: balanceIsZero\n\n      Assert that the balance of an account 'A' is zero.\n\n      : A.balance == 0\n\n      Params:\n          A (address) - The first address.\n          message (string) - A message that is sent if the assertion fails.\n\n      Returns:\n          result (bool) - The result.\n  */\n  function balanceIsZero(address a, string message) public returns (bool result) {\n    result = (a.balance == 0);\n    _report(result, message);\n  }\n\n  /*\n      Function: balanceIsNotZero\n\n      Assert that the balance of an account 'A' is not zero.\n\n      : A.balance != 0\n\n      Params:\n          A (address) - The first address.\n          message (string) - A message that is sent if the assertion fails.\n\n      Returns:\n          result (bool) - The result.\n  */\n  function balanceIsNotZero(address a, string message) public returns (bool result) {\n    result = (a.balance != 0);\n    _report(result, message);\n  }\n\n  /******************************** internal ********************************/\n\n  /*\n      Function: _report\n\n      Internal function for triggering <TestEvent>.\n\n      Params:\n          result (bool) - The test result (true or false).\n          message (string) - The message that is sent if the assertion fails.\n  */\n  function _report(bool result, string message) internal {\n    if(result)\n      emit TestEvent(true, \"\");\n    else\n      emit TestEvent(false, message);\n  }\n\n  /*\n      Function: _stringsEqual\n\n      Compares two strings. Taken from the StringUtils contract in the Ethereum Dapp-bin\n      (https://github.com/ethereum/dapp-bin/blob/master/library/stringUtils.sol).\n\n      Params:\n          a (string) - The first string.\n          b (string) - The second string.\n\n      Returns:\n           result (bool) - 'true' if the strings are equal, otherwise 'false'.\n  */\n  function _stringsEqual(string a, string b) internal pure returns (bool result) {\n    bytes memory ba = bytes(a);\n    bytes memory bb = bytes(b);\n\n    if (ba.length != bb.length)\n      return false;\n    for (uint i = 0; i < ba.length; i ++) {\n      if (ba[i] != bb[i])\n        return false;\n    }\n    return true;\n  }\n\n  /*\n      Function: _itoa\n\n      Convert a signed integer to a string. Negative numbers gets a '-' in front, e.g. \"-54\".\n\n      Params:\n          n (int) - The integer.\n          radix (uint8) - A number between 2 and 16 (inclusive). Characters used are 0-9,a-f\n\n      Returns:\n          result (string) - The resulting string.\n  */\n  function _itoa(int n, uint8 radix) internal pure returns (string) {\n    if (n == 0 || radix < 2 || radix > 16)\n      return '0';\n    bytes memory bts = new bytes(256);\n    uint i;\n    bool neg = false;\n    if (n < 0) {\n      n = -n;\n      neg = true;\n    }\n    while (n > 0) {\n      bts[i++] = _utoa(uint8(n % radix)); // Turn it to ascii.\n      n /= radix;\n    }\n    // Reverse\n    uint size = i;\n    uint j = 0;\n    bytes memory rev;\n    if (neg) {\n      size++;\n      j = 1;\n      rev = new bytes(size);\n      rev[0] = MINUS;\n    }\n    else\n      rev = new bytes(size);\n\n    for (; j < size; j++)\n      rev[j] = bts[size - j - 1];\n    return string(rev);\n  }\n\n  /*\n      Function: _utoa(uint)\n\n      Convert an  unsigned integer to a string.\n\n      Params:\n          n (uint) - The unsigned integer.\n          radix (uint8) - A number between 2 and 16 (inclusive). Characters used are 0-9,a-f\n\n      Returns:\n          result (string) - The resulting string.\n  */\n  function _utoa(uint n, uint8 radix) internal pure returns (string) {\n    if (n == 0 || radix < 2 || radix > 16)\n      return '0';\n    bytes memory bts = new bytes(256);\n    uint i;\n    while (n > 0) {\n      bts[i++] = _utoa(uint8(n % radix)); // Turn it to ascii.\n      n /= radix;\n    }\n    // Reverse\n    bytes memory rev = new bytes(i);\n    for (uint j = 0; j < i; j++)\n      rev[j] = bts[i - j - 1];\n    return string(rev);\n  }\n\n  /*\n      Function: _utoa(uint8)\n\n      Convert an unsigned 8-bit integer to its ASCII byte representation. Numbers 0-9 are converted to '0'-'9',\n      numbers 10-16 to 'a'-'f'. Numbers larger then 16 return the null byte.\n\n      Params:\n          u (uint8) - The unsigned 8-bit integer.\n\n      Returns:\n          result (string) - The ASCII byte.\n  */\n  function _utoa(uint8 u) internal pure returns (byte) {\n    if (u < 10)\n      return byte(u + ZERO);\n    else if (u < 16)\n      return byte(u - 10 + A);\n    else\n      return 0;\n  }\n\n  /*\n      Function: _ltoa\n\n      Convert an boolean to a string.\n\n      Params:\n          val (bool) - The boolean.\n\n      Returns:\n          result (string) - \"true\" if true, \"false\" if false.\n  */\n  function _ltoa(bool val) internal pure returns (string) {\n    bytes memory b;\n    if (val) {\n      b = new bytes(4);\n      b[0] = 't';\n      b[1] = 'r';\n      b[2] = 'u';\n      b[3] = 'e';\n      return string(b);\n    }\n    else {\n      b = new bytes(5);\n      b[0] = 'f';\n      b[1] = 'a';\n      b[2] = 'l';\n      b[3] = 's';\n      b[4] = 'e';\n      return string(b);\n    }\n  }\n\n  /*\n  function htoa(address addr) constant returns (string) {\n      bytes memory bts = new bytes(40);\n      bytes20 addrBts = bytes20(addr);\n      for (uint i = 0; i < 20; i++) {\n          bts[2*i] = addrBts[i] % 16;\n          bts[2*i + 1] = (addrBts[i] / 16) % 16;\n      }\n      return string(bts);\n  }\n  */\n\n  /*\n      Function: _tag(string)\n\n      Add a tag to a string. The 'value' and 'tag' strings are returned on the form \"tag: value\".\n\n      Params:\n          value (string) - The value.\n          tag (string) - The tag.\n\n      Returns:\n          result (string) - \"tag: value\"\n  */\n  function _tag(string value, string tag) internal pure returns (string) {\n\n    bytes memory valueB = bytes(value);\n    bytes memory tagB = bytes(tag);\n\n    uint vl = valueB.length;\n    uint tl = tagB.length;\n\n    bytes memory newB = new bytes(vl + tl + 2);\n\n    uint i;\n    uint j;\n\n    for (i = 0; i < tl; i++)\n      newB[j++] = tagB[i];\n    newB[j++] = ':';\n    newB[j++] = ' ';\n    for (i = 0; i < vl; i++)\n      newB[j++] = valueB[i];\n\n    return string(newB);\n  }\n\n  /*\n      Function: _tag(int)\n\n      Add a tag to an int.\n\n      Params:\n          value (int) - The value.\n          tag (string) - The tag.\n\n      Returns:\n          result (string) - \"tag: _itoa(value)\"\n  */\n  function _tag(int value, string tag) internal pure returns (string) {\n    string memory nstr = _itoa(value, 10);\n    return _tag(nstr, tag);\n  }\n\n  /*\n      Function: _tag(uint)\n\n      Add a tag to an uint.\n\n      Params:\n          value (uint) - The value.\n          tag (string) - The tag.\n\n      Returns:\n          result (string) - \"tag: _utoa(value)\"\n  */\n  function _tag(uint value, string tag) internal pure returns (string) {\n    string memory nstr = _utoa(value, 10);\n    return _tag(nstr, tag);\n  }\n\n  /*\n      Function: _tag(bool)\n\n      Add a tag to a boolean.\n\n      Params:\n          value (bool) - The value.\n          tag (string) - The tag.\n\n      Returns:\n          result (string) - \"tag: _ltoa(value)\"\n  */\n  function _tag(bool value, string tag) internal pure returns (string) {\n    string memory nstr = _ltoa(value);\n    return _tag(nstr, tag);\n  }\n\n  /*\n      Function: _appendTagged(string)\n\n      Append a tagged value to a string.\n\n      Params:\n          tagged (string) - The tagged value.\n          str (string) - The string.\n\n      Returns:\n          result (string) - \"str (tagged)\"\n  */\n  function _appendTagged(string tagged, string str) internal pure returns (string) {\n\n    bytes memory taggedB = bytes(tagged);\n    bytes memory strB = bytes(str);\n\n    uint sl = strB.length;\n    uint tl = taggedB.length;\n\n    bytes memory newB = new bytes(sl + tl + 3);\n\n    uint i;\n    uint j;\n\n    for (i = 0; i < sl; i++)\n      newB[j++] = strB[i];\n    newB[j++] = ' ';\n    newB[j++] = '(';\n    for (i = 0; i < tl; i++)\n      newB[j++] = taggedB[i];\n    newB[j++] = ')';\n\n    return string(newB);\n  }\n\n  /*\n      Function: _appendTagged(string, string)\n\n      Append two tagged values to a string.\n\n      Params:\n          tagged0 (string) - The first tagged value.\n          tagged1 (string) - The second tagged value.\n          str (string) - The string.\n\n      Returns:\n          result (string) - \"str (tagged0, tagged1)\"\n  */\n  function _appendTagged(string tagged0, string tagged1, string str) internal pure returns (string) {\n\n    bytes memory tagged0B = bytes(tagged0);\n    bytes memory tagged1B = bytes(tagged1);\n    bytes memory strB = bytes(str);\n\n    uint sl = strB.length;\n    uint t0l = tagged0B.length;\n    uint t1l = tagged1B.length;\n\n    bytes memory newB = new bytes(sl + t0l + t1l + 5);\n\n    uint i;\n    uint j;\n\n    for (i = 0; i < sl; i++)\n      newB[j++] = strB[i];\n    newB[j++] = ' ';\n    newB[j++] = '(';\n    for (i = 0; i < t0l; i++)\n      newB[j++] = tagged0B[i];\n    newB[j++] = ',';\n    newB[j++] = ' ';\n    for (i = 0; i < t1l; i++)\n      newB[j++] = tagged1B[i];\n    newB[j++] = ')';\n\n    return string(newB);\n  }\n\n}\n",
  "sourcePath": "/Users/sullof/Projects/tronbox/packages/tronbox/test/fixtures/metacoin/contracts/Assert.sol",
  "compiler": {
    "name": "solc",
    "version": "0.4.24-develop.2018.8.28+commit.3ba0cdec.mod.Emscripten.clang"
  },
  "schemaVersion": "2.0.1",
  "updatedAt": "2018-11-15T01:56:53.119Z"
}